{
  "contractName": "GometChild",
  "abi": [
    {
      "constant": true,
      "inputs": [
        {
          "name": "",
          "type": "uint256"
        },
        {
          "name": "",
          "type": "uint256"
        }
      ],
      "name": "epochs",
      "outputs": [
        {
          "name": "",
          "type": "address"
        }
      ],
      "payable": false,
      "stateMutability": "view",
      "type": "function"
    },
    {
      "constant": false,
      "inputs": [
        {
          "name": "_weth",
          "type": "address"
        }
      ],
      "name": "init",
      "outputs": [],
      "payable": false,
      "stateMutability": "nonpayable",
      "type": "function"
    },
    {
      "constant": true,
      "inputs": [
        {
          "name": "_epoch",
          "type": "uint256"
        },
        {
          "name": "_hash",
          "type": "bytes32"
        },
        {
          "name": "_sigs",
          "type": "bytes32[]"
        }
      ],
      "name": "verifyMultiSignature",
      "outputs": [
        {
          "name": "",
          "type": "bool"
        }
      ],
      "payable": false,
      "stateMutability": "view",
      "type": "function"
    },
    {
      "constant": false,
      "inputs": [
        {
          "name": "_epoch",
          "type": "uint256"
        },
        {
          "name": "_signers",
          "type": "address[]"
        }
      ],
      "name": "_changeSigners",
      "outputs": [],
      "payable": false,
      "stateMutability": "nonpayable",
      "type": "function"
    },
    {
      "constant": false,
      "inputs": [
        {
          "name": "_amount",
          "type": "uint256"
        }
      ],
      "name": "toLocalEther",
      "outputs": [],
      "payable": false,
      "stateMutability": "nonpayable",
      "type": "function"
    },
    {
      "constant": true,
      "inputs": [],
      "name": "weth",
      "outputs": [
        {
          "name": "",
          "type": "address"
        }
      ],
      "payable": false,
      "stateMutability": "view",
      "type": "function"
    },
    {
      "constant": false,
      "inputs": [
        {
          "name": "_amount",
          "type": "uint256"
        }
      ],
      "name": "burn",
      "outputs": [],
      "payable": false,
      "stateMutability": "nonpayable",
      "type": "function"
    },
    {
      "constant": false,
      "inputs": [
        {
          "name": "_to",
          "type": "address"
        },
        {
          "name": "_amount",
          "type": "uint256"
        }
      ],
      "name": "_mintmultisigned",
      "outputs": [],
      "payable": false,
      "stateMutability": "nonpayable",
      "type": "function"
    },
    {
      "constant": true,
      "inputs": [
        {
          "name": "",
          "type": "bytes32"
        }
      ],
      "name": "txns",
      "outputs": [
        {
          "name": "count",
          "type": "uint256"
        },
        {
          "name": "executed",
          "type": "bool"
        }
      ],
      "payable": false,
      "stateMutability": "view",
      "type": "function"
    },
    {
      "constant": false,
      "inputs": [
        {
          "name": "_epoch",
          "type": "uint256"
        },
        {
          "name": "_txid",
          "type": "bytes32"
        },
        {
          "name": "_data",
          "type": "bytes"
        },
        {
          "name": "_sig",
          "type": "bytes32[]"
        }
      ],
      "name": "partialExecuteOff",
      "outputs": [],
      "payable": false,
      "stateMutability": "nonpayable",
      "type": "function"
    },
    {
      "constant": true,
      "inputs": [
        {
          "name": "_addr",
          "type": "address"
        }
      ],
      "name": "isSigner",
      "outputs": [
        {
          "name": "",
          "type": "bool"
        }
      ],
      "payable": false,
      "stateMutability": "view",
      "type": "function"
    },
    {
      "constant": false,
      "inputs": [
        {
          "name": "_epoch",
          "type": "uint256"
        },
        {
          "name": "_txid",
          "type": "bytes32"
        },
        {
          "name": "_data",
          "type": "bytes"
        }
      ],
      "name": "partialExecuteOn",
      "outputs": [],
      "payable": false,
      "stateMutability": "nonpayable",
      "type": "function"
    },
    {
      "constant": true,
      "inputs": [
        {
          "name": "",
          "type": "bytes32"
        }
      ],
      "name": "txnsigs",
      "outputs": [
        {
          "name": "epoch",
          "type": "uint256"
        },
        {
          "name": "data",
          "type": "bytes"
        }
      ],
      "payable": false,
      "stateMutability": "view",
      "type": "function"
    },
    {
      "constant": true,
      "inputs": [
        {
          "name": "_epoch",
          "type": "uint256"
        },
        {
          "name": "_txid",
          "type": "bytes32"
        }
      ],
      "name": "getSignatures",
      "outputs": [
        {
          "name": "",
          "type": "bytes"
        },
        {
          "name": "",
          "type": "bytes32[]"
        }
      ],
      "payable": false,
      "stateMutability": "view",
      "type": "function"
    },
    {
      "constant": false,
      "inputs": [
        {
          "name": "blockNo",
          "type": "uint256"
        },
        {
          "name": "rootState",
          "type": "bytes32"
        }
      ],
      "name": "_statechangemultisigned",
      "outputs": [],
      "payable": false,
      "stateMutability": "nonpayable",
      "type": "function"
    },
    {
      "constant": true,
      "inputs": [],
      "name": "getEpochs",
      "outputs": [
        {
          "name": "",
          "type": "uint256"
        }
      ],
      "payable": false,
      "stateMutability": "view",
      "type": "function"
    },
    {
      "constant": false,
      "inputs": [
        {
          "name": "from",
          "type": "address"
        },
        {
          "name": "value",
          "type": "uint256"
        }
      ],
      "name": "_burnmultisigned",
      "outputs": [],
      "payable": false,
      "stateMutability": "nonpayable",
      "type": "function"
    },
    {
      "constant": false,
      "inputs": [
        {
          "name": "_epoch",
          "type": "uint256"
        },
        {
          "name": "_txid",
          "type": "bytes32"
        },
        {
          "name": "_data",
          "type": "bytes"
        },
        {
          "name": "_sigs",
          "type": "bytes32[]"
        }
      ],
      "name": "fullExecuteOff",
      "outputs": [],
      "payable": false,
      "stateMutability": "nonpayable",
      "type": "function"
    },
    {
      "inputs": [
        {
          "name": "_signers",
          "type": "address[]"
        }
      ],
      "payable": false,
      "stateMutability": "nonpayable",
      "type": "constructor"
    },
    {
      "anonymous": false,
      "inputs": [
        {
          "indexed": false,
          "name": "epoch",
          "type": "uint256"
        },
        {
          "indexed": false,
          "name": "from",
          "type": "address"
        },
        {
          "indexed": false,
          "name": "value",
          "type": "uint256"
        }
      ],
      "name": "LogBurn",
      "type": "event"
    },
    {
      "anonymous": false,
      "inputs": [
        {
          "indexed": false,
          "name": "from",
          "type": "address"
        },
        {
          "indexed": false,
          "name": "value",
          "type": "uint256"
        }
      ],
      "name": "LogBurnMultisigned",
      "type": "event"
    },
    {
      "anonymous": false,
      "inputs": [
        {
          "indexed": false,
          "name": "to",
          "type": "address"
        },
        {
          "indexed": false,
          "name": "value",
          "type": "uint256"
        }
      ],
      "name": "LogMintMultisigned",
      "type": "event"
    },
    {
      "anonymous": false,
      "inputs": [
        {
          "indexed": false,
          "name": "blockNo",
          "type": "uint256"
        },
        {
          "indexed": false,
          "name": "rootState",
          "type": "bytes32"
        }
      ],
      "name": "LogStateChangeMultisigned",
      "type": "event"
    },
    {
      "anonymous": false,
      "inputs": [
        {
          "indexed": false,
          "name": "s",
          "type": "string"
        }
      ],
      "name": "Log",
      "type": "event"
    },
    {
      "anonymous": false,
      "inputs": [
        {
          "indexed": false,
          "name": "epoch",
          "type": "uint256"
        },
        {
          "indexed": false,
          "name": "signers",
          "type": "address[]"
        }
      ],
      "name": "LogSignersChanged",
      "type": "event"
    }
  ],
  "bytecode": "0x606060405234156200001057600080fd5b60405162002a2038038062002a2083398101604052808051820191905050806000806200005183620001526401000000000262002243176401000000009004565b15156200005d57600080fd5b60008054809190600101620000739190620001fd565b915082516000838154811015156200008757fe5b9060005260206000209001816200009f91906200022c565b50600090505b825181101562000148578281815181101515620000be57fe5b90602001906020020151600083815481101515620000d857fe5b906000526020600020900182815481101515620000f157fe5b906000526020600020900160006101000a81548173ffffffffffffffffffffffffffffffffffffffff021916908373ffffffffffffffffffffffffffffffffffffffff1602179055508080600101915050620000a5565b50505050620002d7565b600080600090505b8251811015620001f257600081118015620001d4575082818151811015156200017f57fe5b9060200190602002015173ffffffffffffffffffffffffffffffffffffffff168360018303815181101515620001b157fe5b9060200190602002015173ffffffffffffffffffffffffffffffffffffffff1610155b15620001e45760009150620001f7565b80806001019150506200015a565b600191505b50919050565b81548183558181151162000227578183600052602060002091820191016200022691906200025b565b5b505050565b81548183558181151162000256578183600052602060002091820191016200025591906200028c565b5b505050565b6200028991905b808211156200028557600081816200027b9190620002b4565b5060010162000262565b5090565b90565b620002b191905b80821115620002ad57600081600090555060010162000293565b5090565b90565b5080546000825590600052602060002090810190620002d491906200028c565b50565b61273980620002e76000396000f3006060604052600436106100fc576000357c0100000000000000000000000000000000000000000000000000000000900463ffffffff1680630a88bd041461010157806319ab453c1461016d5780631a213ccf146101a657806327d774ae1461022e5780633df30194146102915780633fc8cef3146102b457806342966c68146103095780634ccc9e6f1461032c57806359eaac531461036e5780635b639914146103b45780637df73e271461046757806380aec7b7146104b85780639cef96981461052b578063b1d3cfff146105ef578063c71ab7d6146106e0578063d6b1aa5d14610710578063e839e45214610739578063fd3b668c1461077b575b600080fd5b341561010c57600080fd5b61012b600480803590602001909190803590602001909190505061082e565b604051808273ffffffffffffffffffffffffffffffffffffffff1673ffffffffffffffffffffffffffffffffffffffff16815260200191505060405180910390f35b341561017857600080fd5b6101a4600480803573ffffffffffffffffffffffffffffffffffffffff16906020019091905050610888565b005b34156101b157600080fd5b610214600480803590602001909190803560001916906020019091908035906020019082018035906020019080806020026020016040519081016040528093929190818152602001838360200280828437820191505050505050919050506108cc565b604051808215151515815260200191505060405180910390f35b341561023957600080fd5b61028f600480803590602001909190803590602001908201803590602001908080602002602001604051908101604052809392919081815260200183836020028082843782019150505050505091905050610add565b005b341561029c57600080fd5b6102b26004808035906020019091905050610ca8565b005b34156102bf57600080fd5b6102c7610e91565b604051808273ffffffffffffffffffffffffffffffffffffffff1673ffffffffffffffffffffffffffffffffffffffff16815260200191505060405180910390f35b341561031457600080fd5b61032a6004808035906020019091905050610eb7565b005b341561033757600080fd5b61036c600480803573ffffffffffffffffffffffffffffffffffffffff1690602001909190803590602001909190505061100d565b005b341561037957600080fd5b610393600480803560001916906020019091905050611215565b60405180838152602001821515151581526020019250505060405180910390f35b34156103bf57600080fd5b61046560048080359060200190919080356000191690602001909190803590602001908201803590602001908080601f0160208091040260200160405190810160405280939291908181526020018383808284378201915050505050509190803590602001908201803590602001908080602002602001604051908101604052809392919081815260200183836020028082843782019150505050505091905050611246565b005b341561047257600080fd5b61049e600480803573ffffffffffffffffffffffffffffffffffffffff16906020019091905050611885565b604051808215151515815260200191505060405180910390f35b34156104c357600080fd5b61052960048080359060200190919080356000191690602001909190803590602001908201803590602001908080601f01602080910402602001604051908101604052809392919081815260200183838082843782019150505050505091905050611967565b005b341561053657600080fd5b6105506004808035600019169060200190919050506119af565b60405180838152602001806020018281038252838181546001816001161561010002031660029004815260200191508054600181600116156101000203166002900480156105df5780601f106105b4576101008083540402835291602001916105df565b820191906000526020600020905b8154815290600101906020018083116105c257829003601f168201915b5050935050505060405180910390f35b34156105fa57600080fd5b61061d6004808035906020019091908035600019169060200190919050506119d2565b604051808060200180602001838103835285818151815260200191508051906020019080838360005b83811015610661578082015181840152602081019050610646565b50505050905090810190601f16801561068e5780820380516001836020036101000a031916815260200191505b50838103825284818151815260200191508051906020019060200280838360005b838110156106ca5780820151818401526020810190506106af565b5050505090500194505050505060405180910390f35b34156106eb57600080fd5b61070e600480803590602001909190803560001916906020019091905050611ebd565b005b341561071b57600080fd5b610723611f42565b6040518082815260200191505060405180910390f35b341561074457600080fd5b610779600480803573ffffffffffffffffffffffffffffffffffffffff16906020019091908035906020019091905050611f4e565b005b341561078657600080fd5b61082c60048080359060200190919080356000191690602001909190803590602001908201803590602001908080601f0160208091040260200160405190810160405280939291908181526020018383808284378201915050505050509190803590602001908201803590602001908080602002602001604051908101604052809392919081815260200183836020028082843782019150505050505091905050611ff7565b005b60008281548110151561083d57fe5b90600052602060002090018181548110151561085557fe5b90600052602060002090016000915091509054906101000a900473ffffffffffffffffffffffffffffffffffffffff1681565b80600360006101000a81548173ffffffffffffffffffffffffffffffffffffffff021916908373ffffffffffffffffffffffffffffffffffffffff16021790555050565b6000806000806000806000806000965060006001600080549050038154811015156108f357fe5b9060005260206000209001955060008b1415156109275760008b81548110151561091957fe5b906000526020600020900195505b600094505b8851851015610aca57888581518110151561094357fe5b90602001906020020151600190049350886001860181518110151561096457fe5b906020019060200201519250886002860181518110151561098157fe5b90602001906020020151915060018a858585604051600081526020016040526000604051602001526040518085600019166000191681526020018460ff1660ff16815260200183600019166000191681526020018260001916600019168152602001945050505050602060405160208103908084039060008661646e5a03f11515610a0b57600080fd5b50506020604051035190505b858054905087108015610a8f57508073ffffffffffffffffffffffffffffffffffffffff168688815481101515610a4a57fe5b906000526020600020900160009054906101000a900473ffffffffffffffffffffffffffffffffffffffff1673ffffffffffffffffffffffffffffffffffffffff1614155b15610aa1578680600101975050610a17565b858054905087101515610ab75760009750610acf565b868060010197505060038501945061092c565b600197505b505050505050509392505050565b6000803073ffffffffffffffffffffffffffffffffffffffff163373ffffffffffffffffffffffffffffffffffffffff16141515610b1a57600080fd5b60008054905084141515610b2d57600080fd5b610b3683612243565b1515610b4157600080fd5b60008054809190600101610b55919061254a565b91508251600083815481101515610b6857fe5b906000526020600020900181610b7e9190612576565b50600090505b8251811015610c22578281815181101515610b9b57fe5b90602001906020020151600083815481101515610bb457fe5b906000526020600020900182815481101515610bcc57fe5b906000526020600020900160006101000a81548173ffffffffffffffffffffffffffffffffffffffff021916908373ffffffffffffffffffffffffffffffffffffffff1602179055508080600101915050610b84565b7fb5e0dcdb814193c39968833a2bf73dc168a561d66624cc8f25d176b4cf12ac7e84846040518083815260200180602001828103825283818151815260200191508051906020019060200280838360005b83811015610c8e578082015181840152602081019050610c73565b50505050905001935050505060405180910390a150505050565b600080600080600160008054905003815481101515610cc357fe5b90600052602060002090019250828054905084811515610cdf57fe5b049150600090505b8280549050811015610e4557600360009054906101000a900473ffffffffffffffffffffffffffffffffffffffff1673ffffffffffffffffffffffffffffffffffffffff1663beabacc8338584815481101515610d4057fe5b906000526020600020900160009054906101000a900473ffffffffffffffffffffffffffffffffffffffff16856040518463ffffffff167c0100000000000000000000000000000000000000000000000000000000028152600401808473ffffffffffffffffffffffffffffffffffffffff1673ffffffffffffffffffffffffffffffffffffffff1681526020018373ffffffffffffffffffffffffffffffffffffffff1673ffffffffffffffffffffffffffffffffffffffff1681526020018281526020019350505050600060405180830381600087803b1515610e2457600080fd5b6102c65a03f11515610e3557600080fd5b5050508080600101915050610ce7565b3373ffffffffffffffffffffffffffffffffffffffff166108fc848054905084029081150290604051600060405180830381858888f193505050501515610e8b57600080fd5b50505050565b600360009054906101000a900473ffffffffffffffffffffffffffffffffffffffff1681565b600360009054906101000a900473ffffffffffffffffffffffffffffffffffffffff1673ffffffffffffffffffffffffffffffffffffffff16639dc29fac33836040518363ffffffff167c0100000000000000000000000000000000000000000000000000000000028152600401808373ffffffffffffffffffffffffffffffffffffffff1673ffffffffffffffffffffffffffffffffffffffff16815260200182815260200192505050600060405180830381600087803b1515610f7b57600080fd5b6102c65a03f11515610f8c57600080fd5b5050507fc6153bcdea8e01f311c1272fa84ef0c6fb227f082f3bcdf834a6d1749295e5956001600080549050033383604051808481526020018373ffffffffffffffffffffffffffffffffffffffff1673ffffffffffffffffffffffffffffffffffffffff168152602001828152602001935050505060405180910390a150565b3073ffffffffffffffffffffffffffffffffffffffff163373ffffffffffffffffffffffffffffffffffffffff1614151561104757600080fd5b600360009054906101000a900473ffffffffffffffffffffffffffffffffffffffff1673ffffffffffffffffffffffffffffffffffffffff166340c10f1983836040518363ffffffff167c0100000000000000000000000000000000000000000000000000000000028152600401808373ffffffffffffffffffffffffffffffffffffffff1673ffffffffffffffffffffffffffffffffffffffff16815260200182815260200192505050600060405180830381600087803b151561110b57600080fd5b6102c65a03f1151561111c57600080fd5b505050662386f26fc100008273ffffffffffffffffffffffffffffffffffffffff163110156111a6578173ffffffffffffffffffffffffffffffffffffffff166108fc8373ffffffffffffffffffffffffffffffffffffffff1631662386f26fc10000039081150290604051600060405180830381858888f1935050505015156111a557600080fd5b5b7fcabb9bfc53f76db136dbb70652f3bf4201c3c307e1542c0ad1ccd4bdda3e97158282604051808373ffffffffffffffffffffffffffffffffffffffff1673ffffffffffffffffffffffffffffffffffffffff1681526020018281526020019250505060405180910390a15050565b60016020528060005260406000206000915090508060000154908060010160009054906101000a900460ff16905082565b600080600080600080600160008a6000191660001916815260200190815260200160002060010160009054906101000a900460ff161561128557611879565b89898960405180848152602001836000191660001916815260200182805190602001908083835b6020831015156112d157805182526020820191506020810190506020830392506112ac565b6001836020036101000a0380198251168184511680821785525050505050509050019350505050604051809103902095506040805190810160405280601c81526020017f19457468657265756d205369676e6564204d6573736167653a0a333200000000815250866040518083805190602001908083835b60208310151561136e5780518252602082019150602081019050602083039250611349565b6001836020036101000a038019825116818451168082178552505050505050905001826000191660001916815260200192505050604051809103902094508660008151811015156113bb57fe5b906020019060200201516001900493508660018151811015156113da57fe5b9060200190602002015192508660028151811015156113f557fe5b906020019060200201519150600185858585604051600081526020016040526000604051602001526040518085600019166000191681526020018460ff1660ff16815260200183600019166000191681526020018260001916600019168152602001945050505050602060405160208103908084039060008661646e5a03f1151561147f57600080fd5b50506020604051035190506000600260008b6000191660001916815260200190815260200160002060010180546001816001161561010002031660029004905011156115ed57876040518082805190602001908083835b6020831015156114fb57805182526020820191506020810190506020830392506114d6565b6001836020036101000a038019825116818451168082178552505050505050905001915050604051809103902060001916600260008b6000191660001916815260200190815260200160002060010160405180828054600181600116156101000203166002900480156115a55780601f106115835761010080835404028352918201916115a5565b820191906000526020600020905b815481529060010190602001808311611591575b50509150506040518091039020600019161415156115bf57fe5b89600260008b60001916600019168152602001908152602001600020600001541415156115e857fe5b611644565b87600260008b60001916600019168152602001908152602001600020600101908051906020019061161f9291906125a2565b5089600260008b60001916600019168152602001908152602001600020600001819055505b6003600260008b6000191660001916815260200190815260200160002060020160008373ffffffffffffffffffffffffffffffffffffffff1673ffffffffffffffffffffffffffffffffffffffff168152602001908152602001600020816116ac9190612622565b508660008151811015156116bc57fe5b90602001906020020151600260008b6000191660001916815260200190815260200160002060020160008373ffffffffffffffffffffffffffffffffffffffff1673ffffffffffffffffffffffffffffffffffffffff168152602001908152602001600020600081548110151561172f57fe5b9060005260206000209001816000191690555086600181518110151561175157fe5b90602001906020020151600260008b6000191660001916815260200190815260200160002060020160008373ffffffffffffffffffffffffffffffffffffffff1673ffffffffffffffffffffffffffffffffffffffff16815260200190815260200160002060018154811015156117c457fe5b906000526020600020900181600019169055508660028151811015156117e657fe5b90602001906020020151600260008b6000191660001916815260200190815260200160002060020160008373ffffffffffffffffffffffffffffffffffffffff1673ffffffffffffffffffffffffffffffffffffffff168152602001908152602001600020600281548110151561185957fe5b906000526020600020900181600019169055506118788a8a8a846122e7565b5b50505050505050505050565b60008060006001600080549050039150600090505b6000828154811015156118a957fe5b90600052602060002090018054905081101561195b578373ffffffffffffffffffffffffffffffffffffffff166000838154811015156118e557fe5b9060005260206000209001828154811015156118fd57fe5b906000526020600020900160009054906101000a900473ffffffffffffffffffffffffffffffffffffffff1673ffffffffffffffffffffffffffffffffffffffff16141561194e5760019250611960565b808060010191505061189a565b600092505b5050919050565b60016000836000191660001916815260200190815260200160002060010160009054906101000a900460ff161561199d576119aa565b6119a9838383336122e7565b5b505050565b600260205280600052604060002060009150905080600001549080600101905082565b6119da61264e565b6119e2612662565b60008060006119ef612662565b60009150600093505b600088815481101515611a0757fe5b906000526020600020900180549050841015611aef57600088815481101515611a2c57fe5b906000526020600020900184815481101515611a4457fe5b906000526020600020900160009054906101000a900473ffffffffffffffffffffffffffffffffffffffff169250600060026000896000191660001916815260200190815260200160002060020160008573ffffffffffffffffffffffffffffffffffffffff1673ffffffffffffffffffffffffffffffffffffffff168152602001908152602001600020805490501115611ae25781806001019250505b83806001019450506119f8565b81600302604051805910611b005750595b9080825280602002602001820160405250905060009150600093505b600088815481101515611b2b57fe5b906000526020600020900180549050841015611df357600088815481101515611b5057fe5b906000526020600020900184815481101515611b6857fe5b906000526020600020900160009054906101000a900473ffffffffffffffffffffffffffffffffffffffff169250600060026000896000191660001916815260200190815260200160002060020160008573ffffffffffffffffffffffffffffffffffffffff1673ffffffffffffffffffffffffffffffffffffffff168152602001908152602001600020805490501115611de65760026000886000191660001916815260200190815260200160002060020160008473ffffffffffffffffffffffffffffffffffffffff1673ffffffffffffffffffffffffffffffffffffffff1681526020019081526020016000206000815481101515611c6657fe5b9060005260206000209001548183600302815181101515611c8357fe5b90602001906020020190600019169081600019168152505060026000886000191660001916815260200190815260200160002060020160008473ffffffffffffffffffffffffffffffffffffffff1673ffffffffffffffffffffffffffffffffffffffff1681526020019081526020016000206001815481101515611d0457fe5b9060005260206000209001548160018460030201815181101515611d2457fe5b90602001906020020190600019169081600019168152505060026000886000191660001916815260200190815260200160002060020160008473ffffffffffffffffffffffffffffffffffffffff1673ffffffffffffffffffffffffffffffffffffffff1681526020019081526020016000206002815481101515611da557fe5b9060005260206000209001548160028460030201815181101515611dc557fe5b90602001906020020190600019169081600019168152505081806001019250505b8380600101945050611b1c565b60026000886000191660001916815260200190815260200160002060010181818054600181600116156101000203166002900480601f016020809104026020016040519081016040528092919081815260200182805460018160011615610100020316600290048015611ea75780601f10611e7c57610100808354040283529160200191611ea7565b820191906000526020600020905b815481529060010190602001808311611e8a57829003601f168201915b5050505050915095509550505050509250929050565b3073ffffffffffffffffffffffffffffffffffffffff163373ffffffffffffffffffffffffffffffffffffffff16141515611ef757600080fd5b7f484475499ceaddb59db48ad293e7e24a0d31f3fe3e2c68ee21bf99ef1867a33082826040518083815260200182600019166000191681526020019250505060405180910390a15050565b60008080549050905090565b3073ffffffffffffffffffffffffffffffffffffffff163373ffffffffffffffffffffffffffffffffffffffff16141515611f8857600080fd5b7f8f56dcebcc1a4ffbf29223c5620343abc5fe042ae55ded867c04d3f2325671478282604051808373ffffffffffffffffffffffffffffffffffffffff1673ffffffffffffffffffffffffffffffffffffffff1681526020018281526020019250505060405180910390a15050565b60008085858560405180848152602001836000191660001916815260200182805190602001908083835b6020831015156120465780518252602082019150602081019050602083039250612021565b6001836020036101000a0380198251168184511680821785525050505050509050019350505050604051809103902091506040805190810160405280601c81526020017f19457468657265756d205369676e6564204d6573736167653a0a333200000000815250826040518083805190602001908083835b6020831015156120e357805182526020820191506020810190506020830392506120be565b6001836020036101000a0380198251168184511680821785525050505050509050018260001916600019168152602001925050506040518091039020905061212c8682856108cc565b151561213757600080fd5b60016000866000191660001916815260200190815260200160002060010160009054906101000a900460ff1615151561216f57600080fd5b3073ffffffffffffffffffffffffffffffffffffffff168460405180828051906020019080838360005b838110156121b4578082015181840152602081019050612199565b50505050905090810190601f1680156121e15780820380516001836020036101000a031916815260200191505b5091505060006040518083038160008661646e5a03f1915050151561220557600080fd5b6001806000876000191660001916815260200190815260200160002060010160006101000a81548160ff021916908315150217905550505050505050565b600080600090505b82518110156122dc576000811180156122c15750828181518110151561226d57fe5b9060200190602002015173ffffffffffffffffffffffffffffffffffffffff16836001830381518110151561229e57fe5b9060200190602002015173ffffffffffffffffffffffffffffffffffffffff1610155b156122cf57600091506122e1565b808060010191505061224b565b600191505b50919050565b6000806122f383611885565b15156122fe57600080fd5b60016000866000191660001916815260200190815260200160002060020160008473ffffffffffffffffffffffffffffffffffffffff1673ffffffffffffffffffffffffffffffffffffffff16815260200190815260200160002060009054906101000a900460ff1615151561237357600080fd5b600160008660001916600019168152602001908152602001600020600001600081548092919060010191905055506001806000876000191660001916815260200190815260200160002060020160008573ffffffffffffffffffffffffffffffffffffffff1673ffffffffffffffffffffffffffffffffffffffff16815260200190815260200160002060006101000a81548160ff021916908315150217905550600060016000805490500381548110151561242b57fe5b906000526020600020900191506003828054905060020281151561244b57fe5b0460016000876000191660001916815260200190815260200160002060000154101590508015612542573073ffffffffffffffffffffffffffffffffffffffff168460405180828051906020019080838360005b838110156124ba57808201518184015260208101905061249f565b50505050905090810190601f1680156124e75780820380516001836020036101000a031916815260200191505b5091505060006040518083038160008661646e5a03f1915050151561250b57600080fd5b6001806000876000191660001916815260200190815260200160002060010160006101000a81548160ff0219169083151502179055505b505050505050565b815481835581811511612571578183600052602060002091820191016125709190612676565b5b505050565b81548183558181151161259d5781836000526020600020918201910161259c91906126a2565b5b505050565b828054600181600116156101000203166002900490600052602060002090601f016020900481019282601f106125e357805160ff1916838001178555612611565b82800160010185558215612611579182015b828111156126105782518255916020019190600101906125f5565b5b50905061261e91906126a2565b5090565b8154818355818115116126495781836000526020600020918201910161264891906126c7565b5b505050565b602060405190810160405280600081525090565b602060405190810160405280600081525090565b61269f91905b8082111561269b576000818161269291906126ec565b5060010161267c565b5090565b90565b6126c491905b808211156126c05760008160009055506001016126a8565b5090565b90565b6126e991905b808211156126e55760008160009055506001016126cd565b5090565b90565b508054600082559060005260206000209081019061270a91906126a2565b505600a165627a7a72305820bf892820fd05cf2a8df194c45b4ce64155ee9288ffe77f1ccd252ddc51d655c40029",
  "source": "pragma solidity ^0.4.18;\n\nimport \"./OfflineMultisig.sol\";\nimport \"./WETH.sol\";\n\ncontract GometChild is OfflineMultisig {\n\n    event LogBurn(uint256 epoch, address from, uint value);\n    event LogBurnMultisigned(address from, uint value);\n    event LogMintMultisigned(address to, uint value);\n    event LogStateChangeMultisigned(uint256 blockNo, bytes32 rootState);\n\n    WETH public weth;\n\n    function GometChild(address[] _signers) public \n    OfflineMultisig(_signers) {\n    }\n\n    function init(address _weth) {\n      weth = WETH(_weth);\n    }\n\n    function burn(uint _amount) public {\n       weth.burn(msg.sender,_amount);\n       LogBurn(epochs.length-1,msg.sender,_amount);\n    }\n\n    function toLocalEther(uint _amount) public {\n      address[] storage signers = epochs[epochs.length-1];\n      uint share = _amount / signers.length;\n\n      // split the amount between the current PoAs\n      for (uint i = 0;i<signers.length;i++) {\n        weth.transfer(msg.sender,signers[i],share);\n      }\n\n      // send the ethers to the current signers\n      msg.sender.transfer(share*signers.length);\n    }\n\n    /* ---- multisig functions --------------------------------------- */\n\n    function _mintmultisigned(address _to, uint _amount) public {\n       require(msg.sender == address(this));\n\n       weth.mint(_to,_amount);\n\n       // send a litte of ether to call toLocalEther\n       if (_to.balance < 0.01 ether ) {\n         _to.transfer(0.01 ether - _to.balance);\n       }\n\n       LogMintMultisigned(_to,_amount);\n    }\n\n    // this function is called via partialExecuteOff, this means that all\n    //     offline transactions will be available, this means that this calls\n    //     can be called also into the parent chain\n\n    function _statechangemultisigned(uint256 blockNo, bytes32 rootState) public {\n       require(msg.sender == address(this));      \n       LogStateChangeMultisigned(blockNo, rootState);\n    }\n\n    function _burnmultisigned(address from, uint value) public {\n       require(msg.sender == address(this));      \n       LogBurnMultisigned(from, value);\n    }\n\n}\n",
  "sourcePath": "/Users/amb/Feina/amb/gometh/gometh-contracts/contracts/GometChild.sol",
  "compiler": {
    "name": "solc",
    "version": "0.4.18+commit.9cf6e910.Emscripten.clang"
  },
  "schemaVersion": "1.0.1",
  "updatedAt": "2018-03-13T22:39:52.305Z"
}