{
  "contractName": "GometParent",
  "abi": [
    {
      "constant": true,
      "inputs": [
        {
          "name": "",
          "type": "uint256"
        },
        {
          "name": "",
          "type": "uint256"
        }
      ],
      "name": "epochs",
      "outputs": [
        {
          "name": "",
          "type": "address"
        }
      ],
      "payable": false,
      "stateMutability": "view",
      "type": "function"
    },
    {
      "constant": true,
      "inputs": [
        {
          "name": "_epoch",
          "type": "uint256"
        },
        {
          "name": "_hash",
          "type": "bytes32"
        },
        {
          "name": "_sigs",
          "type": "bytes32[]"
        }
      ],
      "name": "verifyMultiSignature",
      "outputs": [
        {
          "name": "",
          "type": "bool"
        }
      ],
      "payable": false,
      "stateMutability": "view",
      "type": "function"
    },
    {
      "constant": false,
      "inputs": [
        {
          "name": "_epoch",
          "type": "uint256"
        },
        {
          "name": "_signers",
          "type": "address[]"
        }
      ],
      "name": "_changeSigners",
      "outputs": [],
      "payable": false,
      "stateMutability": "nonpayable",
      "type": "function"
    },
    {
      "constant": true,
      "inputs": [
        {
          "name": "",
          "type": "bytes32"
        }
      ],
      "name": "txns",
      "outputs": [
        {
          "name": "count",
          "type": "uint256"
        },
        {
          "name": "executed",
          "type": "bool"
        }
      ],
      "payable": false,
      "stateMutability": "view",
      "type": "function"
    },
    {
      "constant": false,
      "inputs": [
        {
          "name": "_epoch",
          "type": "uint256"
        },
        {
          "name": "_txid",
          "type": "bytes32"
        },
        {
          "name": "_data",
          "type": "bytes"
        },
        {
          "name": "_sig",
          "type": "bytes32[]"
        }
      ],
      "name": "partialExecuteOff",
      "outputs": [],
      "payable": false,
      "stateMutability": "nonpayable",
      "type": "function"
    },
    {
      "constant": true,
      "inputs": [
        {
          "name": "_addr",
          "type": "address"
        }
      ],
      "name": "isSigner",
      "outputs": [
        {
          "name": "",
          "type": "bool"
        }
      ],
      "payable": false,
      "stateMutability": "view",
      "type": "function"
    },
    {
      "constant": false,
      "inputs": [
        {
          "name": "_epoch",
          "type": "uint256"
        },
        {
          "name": "_txid",
          "type": "bytes32"
        },
        {
          "name": "_data",
          "type": "bytes"
        }
      ],
      "name": "partialExecuteOn",
      "outputs": [],
      "payable": false,
      "stateMutability": "nonpayable",
      "type": "function"
    },
    {
      "constant": true,
      "inputs": [
        {
          "name": "",
          "type": "bytes32"
        }
      ],
      "name": "txnsigs",
      "outputs": [
        {
          "name": "epoch",
          "type": "uint256"
        },
        {
          "name": "data",
          "type": "bytes"
        }
      ],
      "payable": false,
      "stateMutability": "view",
      "type": "function"
    },
    {
      "constant": true,
      "inputs": [
        {
          "name": "_epoch",
          "type": "uint256"
        },
        {
          "name": "_txid",
          "type": "bytes32"
        }
      ],
      "name": "getSignatures",
      "outputs": [
        {
          "name": "",
          "type": "bytes"
        },
        {
          "name": "",
          "type": "bytes32[]"
        }
      ],
      "payable": false,
      "stateMutability": "view",
      "type": "function"
    },
    {
      "constant": false,
      "inputs": [
        {
          "name": "_epoch",
          "type": "uint256"
        },
        {
          "name": "_txid",
          "type": "bytes32"
        },
        {
          "name": "_data",
          "type": "bytes"
        },
        {
          "name": "_sigs",
          "type": "bytes32[]"
        }
      ],
      "name": "unlock",
      "outputs": [],
      "payable": false,
      "stateMutability": "nonpayable",
      "type": "function"
    },
    {
      "constant": false,
      "inputs": [
        {
          "name": "_to",
          "type": "address"
        },
        {
          "name": "_value",
          "type": "uint256"
        }
      ],
      "name": "_parentUnlock",
      "outputs": [],
      "payable": false,
      "stateMutability": "nonpayable",
      "type": "function"
    },
    {
      "constant": true,
      "inputs": [],
      "name": "getEpochs",
      "outputs": [
        {
          "name": "",
          "type": "uint256"
        }
      ],
      "payable": false,
      "stateMutability": "view",
      "type": "function"
    },
    {
      "constant": false,
      "inputs": [],
      "name": "lock",
      "outputs": [],
      "payable": true,
      "stateMutability": "payable",
      "type": "function"
    },
    {
      "constant": false,
      "inputs": [
        {
          "name": "_epoch",
          "type": "uint256"
        },
        {
          "name": "_txid",
          "type": "bytes32"
        },
        {
          "name": "_data",
          "type": "bytes"
        },
        {
          "name": "_sigs",
          "type": "bytes32[]"
        }
      ],
      "name": "fullExecuteOff",
      "outputs": [],
      "payable": false,
      "stateMutability": "nonpayable",
      "type": "function"
    },
    {
      "inputs": [
        {
          "name": "_signers",
          "type": "address[]"
        }
      ],
      "payable": false,
      "stateMutability": "nonpayable",
      "type": "constructor"
    },
    {
      "anonymous": false,
      "inputs": [
        {
          "indexed": false,
          "name": "epoch",
          "type": "uint256"
        },
        {
          "indexed": false,
          "name": "from",
          "type": "address"
        },
        {
          "indexed": false,
          "name": "value",
          "type": "uint256"
        }
      ],
      "name": "LogLock",
      "type": "event"
    },
    {
      "anonymous": false,
      "inputs": [
        {
          "indexed": false,
          "name": "to",
          "type": "address"
        },
        {
          "indexed": false,
          "name": "value",
          "type": "uint256"
        }
      ],
      "name": "LogUnlock",
      "type": "event"
    },
    {
      "anonymous": false,
      "inputs": [
        {
          "indexed": false,
          "name": "s",
          "type": "string"
        }
      ],
      "name": "Log",
      "type": "event"
    },
    {
      "anonymous": false,
      "inputs": [
        {
          "indexed": false,
          "name": "epoch",
          "type": "uint256"
        },
        {
          "indexed": false,
          "name": "signers",
          "type": "address[]"
        }
      ],
      "name": "LogSignersChanged",
      "type": "event"
    }
  ],
  "bytecode": "0x606060405234156200001057600080fd5b6040516200254c3803806200254c83398101604052808051820191905050806000806200005183620001526401000000000262001d6f176401000000009004565b15156200005d57600080fd5b60008054809190600101620000739190620001fd565b915082516000838154811015156200008757fe5b9060005260206000209001816200009f91906200022c565b50600090505b825181101562000148578281815181101515620000be57fe5b90602001906020020151600083815481101515620000d857fe5b906000526020600020900182815481101515620000f157fe5b906000526020600020900160006101000a81548173ffffffffffffffffffffffffffffffffffffffff021916908373ffffffffffffffffffffffffffffffffffffffff1602179055508080600101915050620000a5565b50505050620002d7565b600080600090505b8251811015620001f257600081118015620001d4575082818151811015156200017f57fe5b9060200190602002015173ffffffffffffffffffffffffffffffffffffffff168360018303815181101515620001b157fe5b9060200190602002015173ffffffffffffffffffffffffffffffffffffffff1610155b15620001e45760009150620001f7565b80806001019150506200015a565b600191505b50919050565b81548183558181151162000227578183600052602060002091820191016200022691906200025b565b5b505050565b81548183558181151162000256578183600052602060002091820191016200025591906200028c565b5b505050565b6200028991905b808211156200028557600081816200027b9190620002b4565b5060010162000262565b5090565b90565b620002b191905b80821115620002ad57600081600090555060010162000293565b5090565b90565b5080546000825590600052602060002090810190620002d491906200028c565b50565b61226580620002e76000396000f3006060604052600436106100d0576000357c0100000000000000000000000000000000000000000000000000000000900463ffffffff1680630a88bd04146100d55780631a213ccf1461014157806327d774ae146101c957806359eaac531461022c5780635b639914146102725780637df73e271461032557806380aec7b7146103765780639cef9698146103e9578063b1d3cfff146104ad578063c587913e1461059e578063d3574dee14610651578063d6b1aa5d14610693578063f83d08ba146106bc578063fd3b668c146106c6575b600080fd5b34156100e057600080fd5b6100ff6004808035906020019091908035906020019091905050610779565b604051808273ffffffffffffffffffffffffffffffffffffffff1673ffffffffffffffffffffffffffffffffffffffff16815260200191505060405180910390f35b341561014c57600080fd5b6101af600480803590602001909190803560001916906020019091908035906020019082018035906020019080806020026020016040519081016040528093929190818152602001838360200280828437820191505050505050919050506107d3565b604051808215151515815260200191505060405180910390f35b34156101d457600080fd5b61022a6004808035906020019091908035906020019082018035906020019080806020026020016040519081016040528093929190818152602001838360200280828437820191505050505050919050506109e4565b005b341561023757600080fd5b610251600480803560001916906020019091905050610baf565b60405180838152602001821515151581526020019250505060405180910390f35b341561027d57600080fd5b61032360048080359060200190919080356000191690602001909190803590602001908201803590602001908080601f0160208091040260200160405190810160405280939291908181526020018383808284378201915050505050509190803590602001908201803590602001908080602002602001604051908101604052809392919081815260200183836020028082843782019150505050505091905050610be0565b005b341561033057600080fd5b61035c600480803573ffffffffffffffffffffffffffffffffffffffff1690602001909190505061121f565b604051808215151515815260200191505060405180910390f35b341561038157600080fd5b6103e760048080359060200190919080356000191690602001909190803590602001908201803590602001908080601f01602080910402602001604051908101604052809392919081815260200183838082843782019150505050505091905050611301565b005b34156103f457600080fd5b61040e600480803560001916906020019091905050611349565b604051808381526020018060200182810382528381815460018160011615610100020316600290048152602001915080546001816001161561010002031660029004801561049d5780601f106104725761010080835404028352916020019161049d565b820191906000526020600020905b81548152906001019060200180831161048057829003601f168201915b5050935050505060405180910390f35b34156104b857600080fd5b6104db60048080359060200190919080356000191690602001909190505061136c565b604051808060200180602001838103835285818151815260200191508051906020019080838360005b8381101561051f578082015181840152602081019050610504565b50505050905090810190601f16801561054c5780820380516001836020036101000a031916815260200191505b50838103825284818151815260200191508051906020019060200280838360005b8381101561058857808201518184015260208101905061056d565b5050505090500194505050505060405180910390f35b34156105a957600080fd5b61064f60048080359060200190919080356000191690602001909190803590602001908201803590602001908080601f0160208091040260200160405190810160405280939291908181526020018383808284378201915050505050509190803590602001908201803590602001908080602002602001604051908101604052809392919081815260200183836020028082843782019150505050505091905050611857565b005b341561065c57600080fd5b610691600480803573ffffffffffffffffffffffffffffffffffffffff169060200190919080359060200190919050506119a5565b005b341561069e57600080fd5b6106a6611a8e565b6040518082815260200191505060405180910390f35b6106c4611a9a565b005b34156106d157600080fd5b61077760048080359060200190919080356000191690602001909190803590602001908201803590602001908080601f0160208091040260200160405190810160405280939291908181526020018383808284378201915050505050509190803590602001908201803590602001908080602002602001604051908101604052809392919081815260200183836020028082843782019150505050505091905050611b23565b005b60008281548110151561078857fe5b9060005260206000209001818154811015156107a057fe5b90600052602060002090016000915091509054906101000a900473ffffffffffffffffffffffffffffffffffffffff1681565b6000806000806000806000806000965060006001600080549050038154811015156107fa57fe5b9060005260206000209001955060008b14151561082e5760008b81548110151561082057fe5b906000526020600020900195505b600094505b88518510156109d157888581518110151561084a57fe5b90602001906020020151600190049350886001860181518110151561086b57fe5b906020019060200201519250886002860181518110151561088857fe5b90602001906020020151915060018a858585604051600081526020016040526000604051602001526040518085600019166000191681526020018460ff1660ff16815260200183600019166000191681526020018260001916600019168152602001945050505050602060405160208103908084039060008661646e5a03f1151561091257600080fd5b50506020604051035190505b85805490508710801561099657508073ffffffffffffffffffffffffffffffffffffffff16868881548110151561095157fe5b906000526020600020900160009054906101000a900473ffffffffffffffffffffffffffffffffffffffff1673ffffffffffffffffffffffffffffffffffffffff1614155b156109a857868060010197505061091e565b8580549050871015156109be57600097506109d6565b8680600101975050600385019450610833565b600197505b505050505050509392505050565b6000803073ffffffffffffffffffffffffffffffffffffffff163373ffffffffffffffffffffffffffffffffffffffff16141515610a2157600080fd5b60008054905084141515610a3457600080fd5b610a3d83611d6f565b1515610a4857600080fd5b60008054809190600101610a5c9190612076565b91508251600083815481101515610a6f57fe5b906000526020600020900181610a8591906120a2565b50600090505b8251811015610b29578281815181101515610aa257fe5b90602001906020020151600083815481101515610abb57fe5b906000526020600020900182815481101515610ad357fe5b906000526020600020900160006101000a81548173ffffffffffffffffffffffffffffffffffffffff021916908373ffffffffffffffffffffffffffffffffffffffff1602179055508080600101915050610a8b565b7fb5e0dcdb814193c39968833a2bf73dc168a561d66624cc8f25d176b4cf12ac7e84846040518083815260200180602001828103825283818151815260200191508051906020019060200280838360005b83811015610b95578082015181840152602081019050610b7a565b50505050905001935050505060405180910390a150505050565b60016020528060005260406000206000915090508060000154908060010160009054906101000a900460ff16905082565b600080600080600080600160008a6000191660001916815260200190815260200160002060010160009054906101000a900460ff1615610c1f57611213565b89898960405180848152602001836000191660001916815260200182805190602001908083835b602083101515610c6b5780518252602082019150602081019050602083039250610c46565b6001836020036101000a0380198251168184511680821785525050505050509050019350505050604051809103902095506040805190810160405280601c81526020017f19457468657265756d205369676e6564204d6573736167653a0a333200000000815250866040518083805190602001908083835b602083101515610d085780518252602082019150602081019050602083039250610ce3565b6001836020036101000a03801982511681845116808217855250505050505090500182600019166000191681526020019250505060405180910390209450866000815181101515610d5557fe5b90602001906020020151600190049350866001815181101515610d7457fe5b906020019060200201519250866002815181101515610d8f57fe5b906020019060200201519150600185858585604051600081526020016040526000604051602001526040518085600019166000191681526020018460ff1660ff16815260200183600019166000191681526020018260001916600019168152602001945050505050602060405160208103908084039060008661646e5a03f11515610e1957600080fd5b50506020604051035190506000600260008b600019166000191681526020019081526020016000206001018054600181600116156101000203166002900490501115610f8757876040518082805190602001908083835b602083101515610e955780518252602082019150602081019050602083039250610e70565b6001836020036101000a038019825116818451168082178552505050505050905001915050604051809103902060001916600260008b600019166000191681526020019081526020016000206001016040518082805460018160011615610100020316600290048015610f3f5780601f10610f1d576101008083540402835291820191610f3f565b820191906000526020600020905b815481529060010190602001808311610f2b575b5050915050604051809103902060001916141515610f5957fe5b89600260008b6000191660001916815260200190815260200160002060000154141515610f8257fe5b610fde565b87600260008b600019166000191681526020019081526020016000206001019080519060200190610fb99291906120ce565b5089600260008b60001916600019168152602001908152602001600020600001819055505b6003600260008b6000191660001916815260200190815260200160002060020160008373ffffffffffffffffffffffffffffffffffffffff1673ffffffffffffffffffffffffffffffffffffffff16815260200190815260200160002081611046919061214e565b5086600081518110151561105657fe5b90602001906020020151600260008b6000191660001916815260200190815260200160002060020160008373ffffffffffffffffffffffffffffffffffffffff1673ffffffffffffffffffffffffffffffffffffffff16815260200190815260200160002060008154811015156110c957fe5b906000526020600020900181600019169055508660018151811015156110eb57fe5b90602001906020020151600260008b6000191660001916815260200190815260200160002060020160008373ffffffffffffffffffffffffffffffffffffffff1673ffffffffffffffffffffffffffffffffffffffff168152602001908152602001600020600181548110151561115e57fe5b9060005260206000209001816000191690555086600281518110151561118057fe5b90602001906020020151600260008b6000191660001916815260200190815260200160002060020160008373ffffffffffffffffffffffffffffffffffffffff1673ffffffffffffffffffffffffffffffffffffffff16815260200190815260200160002060028154811015156111f357fe5b906000526020600020900181600019169055506112128a8a8a84611e13565b5b50505050505050505050565b60008060006001600080549050039150600090505b60008281548110151561124357fe5b9060005260206000209001805490508110156112f5578373ffffffffffffffffffffffffffffffffffffffff1660008381548110151561127f57fe5b90600052602060002090018281548110151561129757fe5b906000526020600020900160009054906101000a900473ffffffffffffffffffffffffffffffffffffffff1673ffffffffffffffffffffffffffffffffffffffff1614156112e857600192506112fa565b8080600101915050611234565b600092505b5050919050565b60016000836000191660001916815260200190815260200160002060010160009054906101000a900460ff161561133757611344565b61134383838333611e13565b5b505050565b600260205280600052604060002060009150905080600001549080600101905082565b61137461217a565b61137c61218e565b600080600061138961218e565b60009150600093505b6000888154811015156113a157fe5b906000526020600020900180549050841015611489576000888154811015156113c657fe5b9060005260206000209001848154811015156113de57fe5b906000526020600020900160009054906101000a900473ffffffffffffffffffffffffffffffffffffffff169250600060026000896000191660001916815260200190815260200160002060020160008573ffffffffffffffffffffffffffffffffffffffff1673ffffffffffffffffffffffffffffffffffffffff16815260200190815260200160002080549050111561147c5781806001019250505b8380600101945050611392565b8160030260405180591061149a5750595b9080825280602002602001820160405250905060009150600093505b6000888154811015156114c557fe5b90600052602060002090018054905084101561178d576000888154811015156114ea57fe5b90600052602060002090018481548110151561150257fe5b906000526020600020900160009054906101000a900473ffffffffffffffffffffffffffffffffffffffff169250600060026000896000191660001916815260200190815260200160002060020160008573ffffffffffffffffffffffffffffffffffffffff1673ffffffffffffffffffffffffffffffffffffffff1681526020019081526020016000208054905011156117805760026000886000191660001916815260200190815260200160002060020160008473ffffffffffffffffffffffffffffffffffffffff1673ffffffffffffffffffffffffffffffffffffffff168152602001908152602001600020600081548110151561160057fe5b906000526020600020900154818360030281518110151561161d57fe5b90602001906020020190600019169081600019168152505060026000886000191660001916815260200190815260200160002060020160008473ffffffffffffffffffffffffffffffffffffffff1673ffffffffffffffffffffffffffffffffffffffff168152602001908152602001600020600181548110151561169e57fe5b90600052602060002090015481600184600302018151811015156116be57fe5b90602001906020020190600019169081600019168152505060026000886000191660001916815260200190815260200160002060020160008473ffffffffffffffffffffffffffffffffffffffff1673ffffffffffffffffffffffffffffffffffffffff168152602001908152602001600020600281548110151561173f57fe5b906000526020600020900154816002846003020181518110151561175f57fe5b90602001906020020190600019169081600019168152505081806001019250505b83806001019450506114b6565b60026000886000191660001916815260200190815260200160002060010181818054600181600116156101000203166002900480601f0160208091040260200160405190810160405280929190818152602001828054600181600116156101000203166002900480156118415780601f1061181657610100808354040283529160200191611841565b820191906000526020600020905b81548152906001019060200180831161182457829003601f168201915b5050505050915095509550505050509250929050565b3073ffffffffffffffffffffffffffffffffffffffff1663fd3b668c858585856040518563ffffffff167c01000000000000000000000000000000000000000000000000000000000281526004018085815260200184600019166000191681526020018060200180602001838103835285818151815260200191508051906020019080838360005b838110156118fa5780820151818401526020810190506118df565b50505050905090810190601f1680156119275780820380516001836020036101000a031916815260200191505b50838103825284818151815260200191508051906020019060200280838360005b83811015611963578082015181840152602081019050611948565b505050509050019650505050505050600060405180830381600087803b151561198b57600080fd5b6102c65a03f1151561199c57600080fd5b50505050505050565b3073ffffffffffffffffffffffffffffffffffffffff163373ffffffffffffffffffffffffffffffffffffffff161415156119df57600080fd5b8173ffffffffffffffffffffffffffffffffffffffff166108fc829081150290604051600060405180830381858888f193505050501515611a1f57600080fd5b7f626d2e3a6cda22774ca1d99e3d1d195074a7cf3aee475786fb46508a7b2d63268282604051808373ffffffffffffffffffffffffffffffffffffffff1673ffffffffffffffffffffffffffffffffffffffff1681526020018281526020019250505060405180910390a15050565b60008080549050905090565b600034111515611aa957600080fd5b7f3e52cf6837e3557f4cafa7fe48ff1f96d1eda6f942c5d853344d43072b3218f36000805490503334604051808481526020018373ffffffffffffffffffffffffffffffffffffffff1673ffffffffffffffffffffffffffffffffffffffff168152602001828152602001935050505060405180910390a1565b60008085858560405180848152602001836000191660001916815260200182805190602001908083835b602083101515611b725780518252602082019150602081019050602083039250611b4d565b6001836020036101000a0380198251168184511680821785525050505050509050019350505050604051809103902091506040805190810160405280601c81526020017f19457468657265756d205369676e6564204d6573736167653a0a333200000000815250826040518083805190602001908083835b602083101515611c0f5780518252602082019150602081019050602083039250611bea565b6001836020036101000a03801982511681845116808217855250505050505090500182600019166000191681526020019250505060405180910390209050611c588682856107d3565b1515611c6357600080fd5b60016000866000191660001916815260200190815260200160002060010160009054906101000a900460ff16151515611c9b57600080fd5b3073ffffffffffffffffffffffffffffffffffffffff168460405180828051906020019080838360005b83811015611ce0578082015181840152602081019050611cc5565b50505050905090810190601f168015611d0d5780820380516001836020036101000a031916815260200191505b5091505060006040518083038160008661646e5a03f19150501515611d3157600080fd5b6001806000876000191660001916815260200190815260200160002060010160006101000a81548160ff021916908315150217905550505050505050565b600080600090505b8251811015611e0857600081118015611ded57508281815181101515611d9957fe5b9060200190602002015173ffffffffffffffffffffffffffffffffffffffff168360018303815181101515611dca57fe5b9060200190602002015173ffffffffffffffffffffffffffffffffffffffff1610155b15611dfb5760009150611e0d565b8080600101915050611d77565b600191505b50919050565b600080611e1f8361121f565b1515611e2a57600080fd5b60016000866000191660001916815260200190815260200160002060020160008473ffffffffffffffffffffffffffffffffffffffff1673ffffffffffffffffffffffffffffffffffffffff16815260200190815260200160002060009054906101000a900460ff16151515611e9f57600080fd5b600160008660001916600019168152602001908152602001600020600001600081548092919060010191905055506001806000876000191660001916815260200190815260200160002060020160008573ffffffffffffffffffffffffffffffffffffffff1673ffffffffffffffffffffffffffffffffffffffff16815260200190815260200160002060006101000a81548160ff0219169083151502179055506000600160008054905003815481101515611f5757fe5b9060005260206000209001915060038280549050600202811515611f7757fe5b046001600087600019166000191681526020019081526020016000206000015410159050801561206e573073ffffffffffffffffffffffffffffffffffffffff168460405180828051906020019080838360005b83811015611fe6578082015181840152602081019050611fcb565b50505050905090810190601f1680156120135780820380516001836020036101000a031916815260200191505b5091505060006040518083038160008661646e5a03f1915050151561203757600080fd5b6001806000876000191660001916815260200190815260200160002060010160006101000a81548160ff0219169083151502179055505b505050505050565b81548183558181151161209d5781836000526020600020918201910161209c91906121a2565b5b505050565b8154818355818115116120c9578183600052602060002091820191016120c891906121ce565b5b505050565b828054600181600116156101000203166002900490600052602060002090601f016020900481019282601f1061210f57805160ff191683800117855561213d565b8280016001018555821561213d579182015b8281111561213c578251825591602001919060010190612121565b5b50905061214a91906121ce565b5090565b8154818355818115116121755781836000526020600020918201910161217491906121f3565b5b505050565b602060405190810160405280600081525090565b602060405190810160405280600081525090565b6121cb91905b808211156121c757600081816121be9190612218565b506001016121a8565b5090565b90565b6121f091905b808211156121ec5760008160009055506001016121d4565b5090565b90565b61221591905b808211156122115760008160009055506001016121f9565b5090565b90565b508054600082559060005260206000209081019061223691906121ce565b505600a165627a7a72305820b5878802bc825c4702be6473378dc802b5d0665d7ab6e7c3ae95f9b92c26d4500029",
  "source": "pragma solidity ^0.4.18;\n\nimport \"./OfflineMultisig.sol\";\n\ncontract GometParent is OfflineMultisig {\n\n    uint constant DUST = 0;\n\n    // A good question here:\n    // - events means what happened? <- better\n    // - events means what needs to be done?\n\n    event LogLock(uint256 epoch,  address from, uint256 value);\n    event LogUnlock(address to, uint256 value);\n\n    function GometParent(address[] _signers) \n    OfflineMultisig(_signers) public {\n    }\n    \n    /// User calls this functions to send ETH to child chain\n    function lock() payable public {\n        require(msg.value > DUST);\n        LogLock(epochs.length, msg.sender,msg.value);\n\n        // PoA nodes will retrieve this event and then generates a \n        //   muliple partialExecute's for a GometChild._mint call\n        // When all partialExecutes are generated, WETH is mined\n        //   in GometChild\n    }\n\n    /// User calls this function to recover ETH from child chain\n    function unlock(uint _epoch, bytes32 _txid, bytes _data, bytes32[] _sigs) public {\n        // this should trigger _parentUnlock function, and ensures that the function is\n        //  executed only and only one time\n        this.fullExecuteOff(_epoch,_txid,_data,_sigs);\n    }\n\n    /* ---- multisig functions --------------------------------------- */\n\n    function _parentUnlock(address _to, uint _value) public {\n       require(msg.sender == address(this));\n       _to.transfer(_value);\n       LogUnlock(_to,_value);\n    }\n\n\n}",
  "sourcePath": "/Users/amb/Feina/amb/gometh/gometh-contracts/contracts/GometParent.sol",
  "compiler": {
    "name": "solc",
    "version": "0.4.18+commit.9cf6e910.Emscripten.clang"
  },
  "schemaVersion": "1.0.1",
  "updatedAt": "2018-03-13T22:39:52.306Z"
}