{
  "contractName": "OfflineMultisig",
  "abi": [
    {
      "constant": true,
      "inputs": [
        {
          "name": "",
          "type": "uint256"
        },
        {
          "name": "",
          "type": "uint256"
        }
      ],
      "name": "epochs",
      "outputs": [
        {
          "name": "",
          "type": "address"
        }
      ],
      "payable": false,
      "stateMutability": "view",
      "type": "function"
    },
    {
      "constant": true,
      "inputs": [
        {
          "name": "_epoch",
          "type": "uint256"
        },
        {
          "name": "_hash",
          "type": "bytes32"
        },
        {
          "name": "_sigs",
          "type": "bytes32[]"
        }
      ],
      "name": "verifyMultiSignature",
      "outputs": [
        {
          "name": "",
          "type": "bool"
        }
      ],
      "payable": false,
      "stateMutability": "view",
      "type": "function"
    },
    {
      "constant": false,
      "inputs": [
        {
          "name": "_epoch",
          "type": "uint256"
        },
        {
          "name": "_signers",
          "type": "address[]"
        }
      ],
      "name": "_changeSigners",
      "outputs": [],
      "payable": false,
      "stateMutability": "nonpayable",
      "type": "function"
    },
    {
      "constant": true,
      "inputs": [
        {
          "name": "",
          "type": "bytes32"
        }
      ],
      "name": "txns",
      "outputs": [
        {
          "name": "count",
          "type": "uint256"
        },
        {
          "name": "executed",
          "type": "bool"
        }
      ],
      "payable": false,
      "stateMutability": "view",
      "type": "function"
    },
    {
      "constant": false,
      "inputs": [
        {
          "name": "_epoch",
          "type": "uint256"
        },
        {
          "name": "_txid",
          "type": "bytes32"
        },
        {
          "name": "_data",
          "type": "bytes"
        },
        {
          "name": "_sig",
          "type": "bytes32[]"
        }
      ],
      "name": "partialExecuteOff",
      "outputs": [],
      "payable": false,
      "stateMutability": "nonpayable",
      "type": "function"
    },
    {
      "constant": true,
      "inputs": [
        {
          "name": "_addr",
          "type": "address"
        }
      ],
      "name": "isSigner",
      "outputs": [
        {
          "name": "",
          "type": "bool"
        }
      ],
      "payable": false,
      "stateMutability": "view",
      "type": "function"
    },
    {
      "constant": false,
      "inputs": [
        {
          "name": "_epoch",
          "type": "uint256"
        },
        {
          "name": "_txid",
          "type": "bytes32"
        },
        {
          "name": "_data",
          "type": "bytes"
        }
      ],
      "name": "partialExecuteOn",
      "outputs": [],
      "payable": false,
      "stateMutability": "nonpayable",
      "type": "function"
    },
    {
      "constant": true,
      "inputs": [
        {
          "name": "",
          "type": "bytes32"
        }
      ],
      "name": "txnsigs",
      "outputs": [
        {
          "name": "epoch",
          "type": "uint256"
        },
        {
          "name": "data",
          "type": "bytes"
        }
      ],
      "payable": false,
      "stateMutability": "view",
      "type": "function"
    },
    {
      "constant": true,
      "inputs": [
        {
          "name": "_epoch",
          "type": "uint256"
        },
        {
          "name": "_txid",
          "type": "bytes32"
        }
      ],
      "name": "getSignatures",
      "outputs": [
        {
          "name": "",
          "type": "bytes"
        },
        {
          "name": "",
          "type": "bytes32[]"
        }
      ],
      "payable": false,
      "stateMutability": "view",
      "type": "function"
    },
    {
      "constant": true,
      "inputs": [],
      "name": "getEpochs",
      "outputs": [
        {
          "name": "",
          "type": "uint256"
        }
      ],
      "payable": false,
      "stateMutability": "view",
      "type": "function"
    },
    {
      "constant": false,
      "inputs": [
        {
          "name": "_epoch",
          "type": "uint256"
        },
        {
          "name": "_txid",
          "type": "bytes32"
        },
        {
          "name": "_data",
          "type": "bytes"
        },
        {
          "name": "_sigs",
          "type": "bytes32[]"
        }
      ],
      "name": "fullExecuteOff",
      "outputs": [],
      "payable": false,
      "stateMutability": "nonpayable",
      "type": "function"
    },
    {
      "inputs": [
        {
          "name": "_signers",
          "type": "address[]"
        }
      ],
      "payable": false,
      "stateMutability": "nonpayable",
      "type": "constructor"
    },
    {
      "anonymous": false,
      "inputs": [
        {
          "indexed": false,
          "name": "s",
          "type": "string"
        }
      ],
      "name": "Log",
      "type": "event"
    },
    {
      "anonymous": false,
      "inputs": [
        {
          "indexed": false,
          "name": "epoch",
          "type": "uint256"
        },
        {
          "indexed": false,
          "name": "signers",
          "type": "address[]"
        }
      ],
      "name": "LogSignersChanged",
      "type": "event"
    }
  ],
  "bytecode": "0x606060405234156200001057600080fd5b6040516200216a3803806200216a83398101604052808051820191905050600080620000508362000150640100000000026200198f176401000000009004565b15156200005c57600080fd5b60008054809190600101620000729190620001fb565b915082516000838154811015156200008657fe5b9060005260206000209001816200009e91906200022a565b50600090505b825181101562000147578281815181101515620000bd57fe5b90602001906020020151600083815481101515620000d757fe5b906000526020600020900182815481101515620000f057fe5b906000526020600020900160006101000a81548173ffffffffffffffffffffffffffffffffffffffff021916908373ffffffffffffffffffffffffffffffffffffffff1602179055508080600101915050620000a4565b505050620002d5565b600080600090505b8251811015620001f057600081118015620001d2575082818151811015156200017d57fe5b9060200190602002015173ffffffffffffffffffffffffffffffffffffffff168360018303815181101515620001af57fe5b9060200190602002015173ffffffffffffffffffffffffffffffffffffffff1610155b15620001e25760009150620001f5565b808060010191505062000158565b600191505b50919050565b815481835581811511620002255781836000526020600020918201910162000224919062000259565b5b505050565b81548183558181151162000254578183600052602060002091820191016200025391906200028a565b5b505050565b6200028791905b80821115620002835760008181620002799190620002b2565b5060010162000260565b5090565b90565b620002af91905b80821115620002ab57600081600090555060010162000291565b5090565b90565b5080546000825590600052602060002090810190620002d291906200028a565b50565b611e8580620002e56000396000f3006060604052600436106100af576000357c0100000000000000000000000000000000000000000000000000000000900463ffffffff1680630a88bd04146100b45780631a213ccf1461012057806327d774ae146101a857806359eaac531461020b5780635b639914146102515780637df73e271461030457806380aec7b7146103555780639cef9698146103c8578063b1d3cfff1461048c578063d6b1aa5d1461057d578063fd3b668c146105a6575b600080fd5b34156100bf57600080fd5b6100de6004808035906020019091908035906020019091905050610659565b604051808273ffffffffffffffffffffffffffffffffffffffff1673ffffffffffffffffffffffffffffffffffffffff16815260200191505060405180910390f35b341561012b57600080fd5b61018e600480803590602001909190803560001916906020019091908035906020019082018035906020019080806020026020016040519081016040528093929190818152602001838360200280828437820191505050505050919050506106b3565b604051808215151515815260200191505060405180910390f35b34156101b357600080fd5b6102096004808035906020019091908035906020019082018035906020019080806020026020016040519081016040528093929190818152602001838360200280828437820191505050505050919050506108c4565b005b341561021657600080fd5b610230600480803560001916906020019091905050610a8f565b60405180838152602001821515151581526020019250505060405180910390f35b341561025c57600080fd5b61030260048080359060200190919080356000191690602001909190803590602001908201803590602001908080601f0160208091040260200160405190810160405280939291908181526020018383808284378201915050505050509190803590602001908201803590602001908080602002602001604051908101604052809392919081815260200183836020028082843782019150505050505091905050610ac0565b005b341561030f57600080fd5b61033b600480803573ffffffffffffffffffffffffffffffffffffffff169060200190919050506110ff565b604051808215151515815260200191505060405180910390f35b341561036057600080fd5b6103c660048080359060200190919080356000191690602001909190803590602001908201803590602001908080601f016020809104026020016040519081016040528093929190818152602001838380828437820191505050505050919050506111e1565b005b34156103d357600080fd5b6103ed600480803560001916906020019091905050611229565b604051808381526020018060200182810382528381815460018160011615610100020316600290048152602001915080546001816001161561010002031660029004801561047c5780601f106104515761010080835404028352916020019161047c565b820191906000526020600020905b81548152906001019060200180831161045f57829003601f168201915b5050935050505060405180910390f35b341561049757600080fd5b6104ba60048080359060200190919080356000191690602001909190505061124c565b604051808060200180602001838103835285818151815260200191508051906020019080838360005b838110156104fe5780820151818401526020810190506104e3565b50505050905090810190601f16801561052b5780820380516001836020036101000a031916815260200191505b50838103825284818151815260200191508051906020019060200280838360005b8381101561056757808201518184015260208101905061054c565b5050505090500194505050505060405180910390f35b341561058857600080fd5b610590611737565b6040518082815260200191505060405180910390f35b34156105b157600080fd5b61065760048080359060200190919080356000191690602001909190803590602001908201803590602001908080601f0160208091040260200160405190810160405280939291908181526020018383808284378201915050505050509190803590602001908201803590602001908080602002602001604051908101604052809392919081815260200183836020028082843782019150505050505091905050611743565b005b60008281548110151561066857fe5b90600052602060002090018181548110151561068057fe5b90600052602060002090016000915091509054906101000a900473ffffffffffffffffffffffffffffffffffffffff1681565b6000806000806000806000806000965060006001600080549050038154811015156106da57fe5b9060005260206000209001955060008b14151561070e5760008b81548110151561070057fe5b906000526020600020900195505b600094505b88518510156108b157888581518110151561072a57fe5b90602001906020020151600190049350886001860181518110151561074b57fe5b906020019060200201519250886002860181518110151561076857fe5b90602001906020020151915060018a858585604051600081526020016040526000604051602001526040518085600019166000191681526020018460ff1660ff16815260200183600019166000191681526020018260001916600019168152602001945050505050602060405160208103908084039060008661646e5a03f115156107f257600080fd5b50506020604051035190505b85805490508710801561087657508073ffffffffffffffffffffffffffffffffffffffff16868881548110151561083157fe5b906000526020600020900160009054906101000a900473ffffffffffffffffffffffffffffffffffffffff1673ffffffffffffffffffffffffffffffffffffffff1614155b156108885786806001019750506107fe565b85805490508710151561089e57600097506108b6565b8680600101975050600385019450610713565b600197505b505050505050509392505050565b6000803073ffffffffffffffffffffffffffffffffffffffff163373ffffffffffffffffffffffffffffffffffffffff1614151561090157600080fd5b6000805490508414151561091457600080fd5b61091d8361198f565b151561092857600080fd5b6000805480919060010161093c9190611c96565b9150825160008381548110151561094f57fe5b9060005260206000209001816109659190611cc2565b50600090505b8251811015610a0957828181518110151561098257fe5b9060200190602002015160008381548110151561099b57fe5b9060005260206000209001828154811015156109b357fe5b906000526020600020900160006101000a81548173ffffffffffffffffffffffffffffffffffffffff021916908373ffffffffffffffffffffffffffffffffffffffff160217905550808060010191505061096b565b7fb5e0dcdb814193c39968833a2bf73dc168a561d66624cc8f25d176b4cf12ac7e84846040518083815260200180602001828103825283818151815260200191508051906020019060200280838360005b83811015610a75578082015181840152602081019050610a5a565b50505050905001935050505060405180910390a150505050565b60016020528060005260406000206000915090508060000154908060010160009054906101000a900460ff16905082565b600080600080600080600160008a6000191660001916815260200190815260200160002060010160009054906101000a900460ff1615610aff576110f3565b89898960405180848152602001836000191660001916815260200182805190602001908083835b602083101515610b4b5780518252602082019150602081019050602083039250610b26565b6001836020036101000a0380198251168184511680821785525050505050509050019350505050604051809103902095506040805190810160405280601c81526020017f19457468657265756d205369676e6564204d6573736167653a0a333200000000815250866040518083805190602001908083835b602083101515610be85780518252602082019150602081019050602083039250610bc3565b6001836020036101000a03801982511681845116808217855250505050505090500182600019166000191681526020019250505060405180910390209450866000815181101515610c3557fe5b90602001906020020151600190049350866001815181101515610c5457fe5b906020019060200201519250866002815181101515610c6f57fe5b906020019060200201519150600185858585604051600081526020016040526000604051602001526040518085600019166000191681526020018460ff1660ff16815260200183600019166000191681526020018260001916600019168152602001945050505050602060405160208103908084039060008661646e5a03f11515610cf957600080fd5b50506020604051035190506000600260008b600019166000191681526020019081526020016000206001018054600181600116156101000203166002900490501115610e6757876040518082805190602001908083835b602083101515610d755780518252602082019150602081019050602083039250610d50565b6001836020036101000a038019825116818451168082178552505050505050905001915050604051809103902060001916600260008b600019166000191681526020019081526020016000206001016040518082805460018160011615610100020316600290048015610e1f5780601f10610dfd576101008083540402835291820191610e1f565b820191906000526020600020905b815481529060010190602001808311610e0b575b5050915050604051809103902060001916141515610e3957fe5b89600260008b6000191660001916815260200190815260200160002060000154141515610e6257fe5b610ebe565b87600260008b600019166000191681526020019081526020016000206001019080519060200190610e99929190611cee565b5089600260008b60001916600019168152602001908152602001600020600001819055505b6003600260008b6000191660001916815260200190815260200160002060020160008373ffffffffffffffffffffffffffffffffffffffff1673ffffffffffffffffffffffffffffffffffffffff16815260200190815260200160002081610f269190611d6e565b50866000815181101515610f3657fe5b90602001906020020151600260008b6000191660001916815260200190815260200160002060020160008373ffffffffffffffffffffffffffffffffffffffff1673ffffffffffffffffffffffffffffffffffffffff1681526020019081526020016000206000815481101515610fa957fe5b90600052602060002090018160001916905550866001815181101515610fcb57fe5b90602001906020020151600260008b6000191660001916815260200190815260200160002060020160008373ffffffffffffffffffffffffffffffffffffffff1673ffffffffffffffffffffffffffffffffffffffff168152602001908152602001600020600181548110151561103e57fe5b9060005260206000209001816000191690555086600281518110151561106057fe5b90602001906020020151600260008b6000191660001916815260200190815260200160002060020160008373ffffffffffffffffffffffffffffffffffffffff1673ffffffffffffffffffffffffffffffffffffffff16815260200190815260200160002060028154811015156110d357fe5b906000526020600020900181600019169055506110f28a8a8a84611a33565b5b50505050505050505050565b60008060006001600080549050039150600090505b60008281548110151561112357fe5b9060005260206000209001805490508110156111d5578373ffffffffffffffffffffffffffffffffffffffff1660008381548110151561115f57fe5b90600052602060002090018281548110151561117757fe5b906000526020600020900160009054906101000a900473ffffffffffffffffffffffffffffffffffffffff1673ffffffffffffffffffffffffffffffffffffffff1614156111c857600192506111da565b8080600101915050611114565b600092505b5050919050565b60016000836000191660001916815260200190815260200160002060010160009054906101000a900460ff161561121757611224565b61122383838333611a33565b5b505050565b600260205280600052604060002060009150905080600001549080600101905082565b611254611d9a565b61125c611dae565b6000806000611269611dae565b60009150600093505b60008881548110151561128157fe5b906000526020600020900180549050841015611369576000888154811015156112a657fe5b9060005260206000209001848154811015156112be57fe5b906000526020600020900160009054906101000a900473ffffffffffffffffffffffffffffffffffffffff169250600060026000896000191660001916815260200190815260200160002060020160008573ffffffffffffffffffffffffffffffffffffffff1673ffffffffffffffffffffffffffffffffffffffff16815260200190815260200160002080549050111561135c5781806001019250505b8380600101945050611272565b8160030260405180591061137a5750595b9080825280602002602001820160405250905060009150600093505b6000888154811015156113a557fe5b90600052602060002090018054905084101561166d576000888154811015156113ca57fe5b9060005260206000209001848154811015156113e257fe5b906000526020600020900160009054906101000a900473ffffffffffffffffffffffffffffffffffffffff169250600060026000896000191660001916815260200190815260200160002060020160008573ffffffffffffffffffffffffffffffffffffffff1673ffffffffffffffffffffffffffffffffffffffff1681526020019081526020016000208054905011156116605760026000886000191660001916815260200190815260200160002060020160008473ffffffffffffffffffffffffffffffffffffffff1673ffffffffffffffffffffffffffffffffffffffff16815260200190815260200160002060008154811015156114e057fe5b90600052602060002090015481836003028151811015156114fd57fe5b90602001906020020190600019169081600019168152505060026000886000191660001916815260200190815260200160002060020160008473ffffffffffffffffffffffffffffffffffffffff1673ffffffffffffffffffffffffffffffffffffffff168152602001908152602001600020600181548110151561157e57fe5b906000526020600020900154816001846003020181518110151561159e57fe5b90602001906020020190600019169081600019168152505060026000886000191660001916815260200190815260200160002060020160008473ffffffffffffffffffffffffffffffffffffffff1673ffffffffffffffffffffffffffffffffffffffff168152602001908152602001600020600281548110151561161f57fe5b906000526020600020900154816002846003020181518110151561163f57fe5b90602001906020020190600019169081600019168152505081806001019250505b8380600101945050611396565b60026000886000191660001916815260200190815260200160002060010181818054600181600116156101000203166002900480601f0160208091040260200160405190810160405280929190818152602001828054600181600116156101000203166002900480156117215780601f106116f657610100808354040283529160200191611721565b820191906000526020600020905b81548152906001019060200180831161170457829003601f168201915b5050505050915095509550505050509250929050565b60008080549050905090565b60008085858560405180848152602001836000191660001916815260200182805190602001908083835b602083101515611792578051825260208201915060208101905060208303925061176d565b6001836020036101000a0380198251168184511680821785525050505050509050019350505050604051809103902091506040805190810160405280601c81526020017f19457468657265756d205369676e6564204d6573736167653a0a333200000000815250826040518083805190602001908083835b60208310151561182f578051825260208201915060208101905060208303925061180a565b6001836020036101000a038019825116818451168082178552505050505050905001826000191660001916815260200192505050604051809103902090506118788682856106b3565b151561188357600080fd5b60016000866000191660001916815260200190815260200160002060010160009054906101000a900460ff161515156118bb57600080fd5b3073ffffffffffffffffffffffffffffffffffffffff168460405180828051906020019080838360005b838110156119005780820151818401526020810190506118e5565b50505050905090810190601f16801561192d5780820380516001836020036101000a031916815260200191505b5091505060006040518083038160008661646e5a03f1915050151561195157600080fd5b6001806000876000191660001916815260200190815260200160002060010160006101000a81548160ff021916908315150217905550505050505050565b600080600090505b8251811015611a2857600081118015611a0d575082818151811015156119b957fe5b9060200190602002015173ffffffffffffffffffffffffffffffffffffffff1683600183038151811015156119ea57fe5b9060200190602002015173ffffffffffffffffffffffffffffffffffffffff1610155b15611a1b5760009150611a2d565b8080600101915050611997565b600191505b50919050565b600080611a3f836110ff565b1515611a4a57600080fd5b60016000866000191660001916815260200190815260200160002060020160008473ffffffffffffffffffffffffffffffffffffffff1673ffffffffffffffffffffffffffffffffffffffff16815260200190815260200160002060009054906101000a900460ff16151515611abf57600080fd5b600160008660001916600019168152602001908152602001600020600001600081548092919060010191905055506001806000876000191660001916815260200190815260200160002060020160008573ffffffffffffffffffffffffffffffffffffffff1673ffffffffffffffffffffffffffffffffffffffff16815260200190815260200160002060006101000a81548160ff0219169083151502179055506000600160008054905003815481101515611b7757fe5b9060005260206000209001915060038280549050600202811515611b9757fe5b0460016000876000191660001916815260200190815260200160002060000154101590508015611c8e573073ffffffffffffffffffffffffffffffffffffffff168460405180828051906020019080838360005b83811015611c06578082015181840152602081019050611beb565b50505050905090810190601f168015611c335780820380516001836020036101000a031916815260200191505b5091505060006040518083038160008661646e5a03f19150501515611c5757600080fd5b6001806000876000191660001916815260200190815260200160002060010160006101000a81548160ff0219169083151502179055505b505050505050565b815481835581811511611cbd57818360005260206000209182019101611cbc9190611dc2565b5b505050565b815481835581811511611ce957818360005260206000209182019101611ce89190611dee565b5b505050565b828054600181600116156101000203166002900490600052602060002090601f016020900481019282601f10611d2f57805160ff1916838001178555611d5d565b82800160010185558215611d5d579182015b82811115611d5c578251825591602001919060010190611d41565b5b509050611d6a9190611dee565b5090565b815481835581811511611d9557818360005260206000209182019101611d949190611e13565b5b505050565b602060405190810160405280600081525090565b602060405190810160405280600081525090565b611deb91905b80821115611de75760008181611dde9190611e38565b50600101611dc8565b5090565b90565b611e1091905b80821115611e0c576000816000905550600101611df4565b5090565b90565b611e3591905b80821115611e31576000816000905550600101611e19565b5090565b90565b5080546000825590600052602060002090810190611e569190611dee565b505600a165627a7a72305820b90122d70b2bde697e8fcb91f9340dd267d8500fa7488f990f7d544a46439be80029",
  "source": "pragma solidity ^0.4.18;\n\ncontract OfflineMultisig {\n\n    event Log(string s);\n\n    bytes constant WEB3_SIGNATURE_PREFIX = \"\\x19Ethereum Signed Message:\\n32\";\n\n    address[][] public epochs;\n\n    struct Transaction {\n        uint count;\n        bool executed;\n        mapping (address=>bool) approved;\n    }\n\n    struct Signature {\n        uint256 epoch;\n        bytes data;\n        mapping (address=>bytes32[]) sigs;\n    }\n    \n    mapping (bytes32=>Transaction) public txns;\n    mapping (bytes32=>Signature) public txnsigs;\n\n    function getEpochs() public view returns (uint) {\n       return epochs.length;\n    }\n\n    function OfflineMultisig(address[] _signers) public {\n      require(checkSignersOrder(_signers));\n      uint epoch = epochs.length++;\n      epochs[epoch].length = _signers.length;\n      for (uint i = 0;i<_signers.length;i++) {\n          epochs[epoch][i] = _signers[i];\n      }\n    }\n\n    function checkSignersOrder(address[] _signers) internal pure returns (bool) {\n      for (uint i = 0;i<_signers.length;i++) {\n         if (i>0 && uint(_signers[i-1])>=uint(_signers[i])) {\n            return false;\n         }\n      }\n      return true;\n    }\n    \n    function isSigner( address _addr) public view returns (bool) {\n        uint epoch = epochs.length-1;\n        for (uint i = 0;i<epochs[epoch].length;i++) {\n           if (epochs[epoch][i]==_addr) {\n              return true;\n            }\n        }\n        return false;      \n     }\n    \n    function verifyMultiSignature(uint _epoch, bytes32 _hash, bytes32[] _sigs) view public\n    returns (bool) {\n\n        uint signerNo = 0;\n        \n        address[] storage signers = epochs[epochs.length-1];\n        if ( _epoch != 0 ) {\n            signers = epochs[_epoch];\n        }\n        \n        for (uint i = 0;i<_sigs.length;i += 3) {\n          \n          // retrieve the signer\n          \n          uint8 v = uint8(uint256(_sigs[i]));\n          bytes32 r = _sigs[i+1];\n          bytes32 s = _sigs[i+2];\n          address signer = ecrecover(_hash,v,r,s); \n\n          // check that this signer exists in the current signer list\n          \n          while (signerNo<signers.length && signers[signerNo]!=signer) {\n              signerNo++;\n          }\n          if (signerNo>=signers.length) {\n              return false;\n          }\n          \n          // jump to the next signer, to avoid duplicates\n          \n          signerNo++;\n    \n        }\n        \n        return true;\n     }\n    \n\n    // parent chain execution\n    function fullExecuteOff(uint _epoch, bytes32 _txid, bytes _data, bytes32[] _sigs) public {\n        \n        bytes32 hash = keccak256(_epoch,_txid,_data);\n        bytes32 prefixedHash = keccak256(WEB3_SIGNATURE_PREFIX, hash);\n\n        require(verifyMultiSignature(_epoch,prefixedHash,_sigs));\n        require(!txns[_txid].executed);\n        require(this.call(_data));\n\n        txns[_txid].executed = true;\n    }\n\n    // child chain execution\n    function partialExecuteOff(uint256 _epoch, bytes32 _txid, bytes _data, bytes32[] _sig) public {\n\n        if (txns[_txid].executed) {\n            return;\n        }\n\n        bytes32 hash = keccak256(_epoch,_txid,_data);\n        bytes32 prefixedHash = keccak256(WEB3_SIGNATURE_PREFIX, hash);\n\n        uint8 v = uint8(uint256(_sig[0]));\n        bytes32 r = _sig[1];\n        bytes32 s = _sig[2];\n\n        address signer = ecrecover(prefixedHash,v,r,s);\n\n        if (txnsigs[_txid].data.length>0) {\n            assert(keccak256(txnsigs[_txid].data)==keccak256(_data));\n            assert(txnsigs[_txid].epoch==_epoch);\n        } else {\n            txnsigs[_txid].data = _data;\n            txnsigs[_txid].epoch = _epoch;\n        }\n\n        txnsigs[_txid].sigs[signer].length = 3;\n        txnsigs[_txid].sigs[signer][0] = _sig[0];\n        txnsigs[_txid].sigs[signer][1] = _sig[1];\n        txnsigs[_txid].sigs[signer][2] = _sig[2];\n\n        partialExecute(_epoch,_txid,_data,signer);\n    }    \n\n    function getSignatures(uint256 _epoch, bytes32 _txid) public constant returns(bytes,bytes32[]) {\n\n        uint i;\n        address signer;\n        uint count = 0;\n\n        for (i = 0;i<epochs[_epoch].length;i++) {\n            signer = epochs[_epoch][i];\n            if (txnsigs[_txid].sigs[signer].length > 0) {\n                count++;\n            }\n        }\n\n        bytes32[] memory signatures = new bytes32[](3*count);\n\n        count = 0;\n        for (i = 0;i<epochs[_epoch].length;i++) {\n            signer = epochs[_epoch][i];\n            if (txnsigs[_txid].sigs[signer].length > 0) {\n                signatures[3*count] = txnsigs[_txid].sigs[signer][0];\n                signatures[3*count+1] = txnsigs[_txid].sigs[signer][1];\n                signatures[3*count+2] = txnsigs[_txid].sigs[signer][2];\n                count++;\n            }\n        }\n\n        return (txnsigs[_txid].data,signatures);\n    }\n \n    // child chain execution\n    function partialExecuteOn(uint256 _epoch, bytes32 _txid, bytes _data) public {  \n        if (txns[_txid].executed) {\n            // we are not going to fail here because last PoA senders will \n            return;\n        }\n        partialExecute(_epoch,_txid,_data,msg.sender);   \n    }    \n\n    // child chain execution\n    function partialExecute(uint256 _epoch, bytes32 _txid, bytes _data, address _signer) private {\n\n        require (isSigner(_signer));\n        require (!txns[_txid].approved[_signer]);\n\n        txns[_txid].count++;\n        txns[_txid].approved[_signer] = true;\n\n        address[] storage signers = epochs[epochs.length-1];\n        bool quorum = txns[_txid].count >= (2 * signers.length) / 3;\n\n        if (quorum) {\n            require(this.call(_data));\n            txns[_txid].executed = true;\n        }\n        \n    }\n\n    /* ---- multisig functions --------------------------------------- */\n\n    event LogSignersChanged(uint epoch, address[] signers);\n    \n    function _changeSigners(uint _epoch, address[] _signers) public {\n        \n        require (msg.sender == address(this));\n        \n        require (_epoch == epochs.length);\n        require (checkSignersOrder(_signers));\n      \n          uint epoch = epochs.length++;\n          epochs[epoch].length = _signers.length;\n          for (uint i = 0;i<_signers.length;i++) {\n              epochs[epoch][i] = _signers[i];\n          }\n\n        LogSignersChanged(_epoch,_signers);\n    } \n    \n}",
  "sourcePath": "/Users/amb/Feina/amb/gometh/gometh-contracts/contracts/OfflineMultisig.sol",
  "compiler": {
    "name": "solc",
    "version": "0.4.18+commit.9cf6e910.Emscripten.clang"
  },
  "schemaVersion": "1.0.1",
  "updatedAt": "2018-03-13T22:39:52.306Z"
}