{
  "contractName": "PatriciaTree",
  "abi": [
    {
      "constant": false,
      "inputs": [
        {
          "name": "key",
          "type": "bytes"
        },
        {
          "name": "value",
          "type": "bytes"
        }
      ],
      "name": "insert",
      "outputs": [],
      "payable": false,
      "stateMutability": "nonpayable",
      "type": "function"
    },
    {
      "constant": true,
      "inputs": [
        {
          "name": "hash",
          "type": "bytes32"
        }
      ],
      "name": "getNode",
      "outputs": [
        {
          "name": "",
          "type": "uint256"
        },
        {
          "name": "",
          "type": "bytes32"
        },
        {
          "name": "",
          "type": "bytes32"
        },
        {
          "name": "",
          "type": "uint256"
        },
        {
          "name": "",
          "type": "bytes32"
        },
        {
          "name": "",
          "type": "bytes32"
        }
      ],
      "payable": false,
      "stateMutability": "view",
      "type": "function"
    },
    {
      "constant": true,
      "inputs": [
        {
          "name": "key",
          "type": "bytes"
        }
      ],
      "name": "getProof",
      "outputs": [
        {
          "name": "branchMask",
          "type": "uint256"
        },
        {
          "name": "_siblings",
          "type": "bytes32[]"
        }
      ],
      "payable": false,
      "stateMutability": "view",
      "type": "function"
    },
    {
      "constant": true,
      "inputs": [],
      "name": "getRootEdge",
      "outputs": [
        {
          "name": "",
          "type": "uint256"
        },
        {
          "name": "",
          "type": "bytes32"
        },
        {
          "name": "",
          "type": "bytes32"
        }
      ],
      "payable": false,
      "stateMutability": "view",
      "type": "function"
    },
    {
      "constant": true,
      "inputs": [],
      "name": "root",
      "outputs": [
        {
          "name": "",
          "type": "bytes32"
        }
      ],
      "payable": false,
      "stateMutability": "view",
      "type": "function"
    },
    {
      "constant": true,
      "inputs": [
        {
          "name": "rootHash",
          "type": "bytes32"
        },
        {
          "name": "key",
          "type": "bytes"
        },
        {
          "name": "value",
          "type": "bytes"
        },
        {
          "name": "branchMask",
          "type": "uint256"
        },
        {
          "name": "siblings",
          "type": "bytes32[]"
        }
      ],
      "name": "verifyProof",
      "outputs": [],
      "payable": false,
      "stateMutability": "pure",
      "type": "function"
    },
    {
      "inputs": [],
      "payable": false,
      "stateMutability": "nonpayable",
      "type": "constructor"
    }
  ],
  "bytecode": "0x6060604052341561000f57600080fd5b336000806101000a81548173ffffffffffffffffffffffffffffffffffffffff021916908373ffffffffffffffffffffffffffffffffffffffff16021790555061176f8061005e6000396000f300606060405260043610610078576000357c0100000000000000000000000000000000000000000000000000000000900463ffffffff16806320ba5b601461007d57806350c946fe1461011d578063693ac4fb1461019b578063a43914da14610254578063ebf0c7171461029b578063f7e498f6146102cc575b600080fd5b341561008857600080fd5b61011b600480803590602001908201803590602001908080601f0160208091040260200160405190810160405280939291908181526020018383808284378201915050505050509190803590602001908201803590602001908080601f016020809104026020016040519081016040528093929190818152602001838380828437820191505050505050919050506103c2565b005b341561012857600080fd5b6101426004808035600019169060200190919050506105e4565b604051808781526020018660001916600019168152602001856000191660001916815260200184815260200183600019166000191681526020018260001916600019168152602001965050505050505060405180910390f35b34156101a657600080fd5b6101f6600480803590602001908201803590602001908080601f016020809104026020016040519081016040528093929190818152602001838380828437820191505050505050919050506106ca565b6040518083815260200180602001828103825283818151815260200191508051906020019060200280838360005b8381101561023f578082015181840152602081019050610224565b50505050905001935050505060405180910390f35b341561025f57600080fd5b610267610a17565b6040518084815260200183600019166000191681526020018260001916600019168152602001935050505060405180910390f35b34156102a657600080fd5b6102ae610a3f565b60405180826000191660001916815260200191505060405180910390f35b34156102d757600080fd5b6103c060048080356000191690602001909190803590602001908201803590602001908080601f0160208091040260200160405190810160405280939291908181526020018383808284378201915050505050509190803590602001908201803590602001908080601f0160208091040260200160405190810160405280939291908181526020018383808284378201915050505050509190803590602001909190803590602001908201803590602001908080602002602001604051908101604052809392919081815260200183836020028082843782019150505050505091905050610a45565b005b6103ca611520565b60006103d461153d565b6040805190810160405280866040518082805190602001908083835b60208310151561041557805182526020820191506020810190506020830392506103f0565b6001836020036101000a03801982511681845116808217855250505050505090500191505060405180910390206000191681526020016101008152509250836040518082805190602001908083835b6020831015156104895780518252602082019150602081019050602083039250610464565b6001836020036101000a038019825116818451168082178552505050505050905001915050604051809103902091508360016000846000191660001916815260200190815260200160002090805190602001906104e7929190611561565b5060006001026004600001546000191614801561050c57506000600460010160010154145b1561053357828160200181905250818160000190600019169081600019168152505061058f565b61058c600460408051908101604052908160008201546000191660001916815260200160018201604080519081016040529081600082015460001916600019168152602001600182015481525050815250508484610cb4565b90505b61059881610e0f565b6003816000191690555080600460008201518160000190600019169055602082015181600101600082015181600001906000191690556020820151816001015550509050505050505050565b6000806000806000806000600260008960001916600019168152602001908152602001600020905080600001600060028110151561061e57fe5b600302016001016001015481600001600060028110151561063b57fe5b600302016001016000015482600001600060028110151561065857fe5b600302016000015483600001600160028110151561067257fe5b600302016001016001015484600001600160028110151561068f57fe5b60030201600101600001548560000160016002811015156106ac57fe5b60030201600001549650965096509650965096505091939550919395565b60006106d46115e1565b6106dc611520565b6106e461153d565b6106ec6115f5565b6000806106f7611520565b6106ff611520565b6000610709611520565b600060408051908101604052808e6040518082805190602001908083835b60208310151561074c5780518252602082019150602081019050602083039250610727565b6001836020036101000a038019825116818451168082178552505050505050905001915050604051809103902060001916815260200161010081525099506004604080519081016040529081600082015460001916600019168152602001600182016040805190810160405290816000820154600019166000191681526020016001820154815250508152505098505b600115610989576107f18a8a60200151610e62565b94509450886020015160200151856020015114151561080f57600080fd5b60008460200151141561082157610989565b8460200151870196508660ff0360019060020a028c179b5060018701965061084884610e90565b925092506108d7600260008b60000151600019166000191681526020019081526020016000206000018460010360028110151561088157fe5b600302016040805190810160405290816000820154600019166000191681526020016001820160408051908101604052908160008201546000191660001916815260200160018201548152505081525050610e0f565b8887806001019850610100811015156108ec57fe5b60200201906000191690816000191681525050600260008a60000151600019166000191681526020019081526020016000206000018360028110151561092e57fe5b60030201604080519081016040529081600082015460001916600019168152602001600182016040805190810160405290816000820154600019166000191681526020016001820154815250508152505098508199506107dc565b6000861115610a0857856040518059106109a05750595b90808252806020026020018201604052509a50600090505b85811015610a07578781610100811015156109cf57fe5b60200201518b828151811015156109e257fe5b90602001906020020190600019169081600019168152505080806001019150506109b8565b5b50505050505050505050915091565b6000806000600460010160010154600460010160000154600460000154925092509250909192565b60035481565b610a4d611520565b610a5561153d565b6000806000610a62611622565b60408051908101604052808b6040518082805190602001908083835b602083101515610aa35780518252602082019150602081019050602083039250610a7e565b6001836020036101000a03801982511681845116808217855250505050505090500191505060405180910390206000191681526020016101008152509550886040518082805190602001908083835b602083101515610b175780518252602082019150602081019050602083039250610af2565b6001836020036101000a038019825116818451168082178552505050505050905001915050604051809103902085600001906000191690816000191681525050600093505b600088141515610c8057610b6f88610efd565b92508260019060020a021988169750610b8b868460ff0361106d565b809050866020018190528197505050610ba78560200151610e90565b809050866020018190528193505050610bbf85610e0f565b8183600281101515610bcd57fe5b602002019060001916908160001916815250508660018589510303815181101515610bf457fe5b906020019060200201518183600103600281101515610c0f57fe5b60200201906000191690816000191681525050806040518082600260200280838360005b83811015610c4e578082015181840152602081019050610c33565b505050509050019150506040518091039020856000019060001916908160001916815250508380600101945050610b5c565b858560200181905250610c9285610e0f565b600019168b60001916141515610ca757600080fd5b5050505050505050505050565b610cbc61153d565b610cc4611520565b610ccc611520565b600080610cd7611520565b610cdf61164c565b896020015160200151896020015110151515610cfa57600080fd5b610d08898b60200151610e62565b95509550600085602001511415610d2157879350610de7565b8960200151602001518660200151101515610d4c57610d458a60000151868a611134565b9350610de6565b610d5585610e90565b9250925060408051908101604052808960001916815260200183815250816000015184600281101515610d8457fe5b602002018190525060408051908101604052808b60000151600019168152602001610dba8c6020015160018a6020015101611270565b815250816000015184600103600281101515610dd257fe5b6020020181905250610de3816112c3565b93505b5b6040805190810160405280856000191681526020018781525096505050505050509392505050565b600081600001518260200151602001518360200151600001516040518084600019166000191681526020018381526020018260001916600019168152602001935050505060405180910390209050919050565b610e6a611520565b610e72611520565b610e8584610e8085876113da565b61106d565b915091509250929050565b6000610e9a611520565b60008360200151111515610ead57600080fd5b60ff8360000151600019169060020a900460019004604080519081016040528060018660000151600019169060020a02600019168152602001600186602001510381525080905091509150915091565b6000806000806000808614151515610f1457600080fd5b856001029350600092505b6020831015610fbb5760007f0100000000000000000000000000000000000000000000000000000000000000028484601f03602081101515610f5d57fe5b1a7f0100000000000000000000000000000000000000000000000000000000000000027effffffffffffffffffffffffffffffffffffffffffffffffffffffffffffff1916141515610fae57610fbb565b8280600101935050610f1f565b8383601f03602081101515610fcc57fe5b1a7f0100000000000000000000000000000000000000000000000000000000000000027f0100000000000000000000000000000000000000000000000000000000000000900460ff16915060019050600094505b610100851015611055576000818316141515611043578483600802019450611064565b80810190508480600101955050611020565b6000151561105f57fe5b600094505b50505050919050565b611075611520565b61107d611520565b8360200151831115801561109357506101008311155b151561109e57600080fd5b8282602001818152505060008314156110ce576000600102826000019060001916908160001916815250506110fb565b6001836101000360019060020a020360010219846000015116826000019060001916908160001916815250505b82846020015103816020018181525050828460000151600019169060020a02816000019060001916908160001916815250509250929050565b600061113e61164c565b6000611148611520565b6001866020015111151561115b57600080fd5b6002600088600019166000191681526020019081526020016000206020604051908101604052908160008201600280602002604051908101604052809291906000905b828210156112085783826003020160408051908101604052908160008201546000191660001916815260200160018201604080519081016040529081600082015460001916600019168152602001600182015481525050815250508152602001906001019061119e565b5050505081525050925061121b86610e90565b9150915061124083600001518360028110151561123457fe5b60200201518287610cb4565b83600001518360028110151561125257fe5b6020020181905250611264878461146a565b93505050509392505050565b611278611520565b8260200151821115151561128b57600080fd5b81836020015103816020018181525050818360000151600019169060020a028160000190600019169081600019168152505092915050565b6000806112cf836114ab565b9050826000015160006002811015156112e457fe5b6020020151600260008360001916600019168152602001908152602001600020600001600060028110151561131557fe5b6003020160008201518160000190600019169055602082015181600101600082015181600001906000191690556020820151816001015550509050508260000151600160028110151561136457fe5b6020020151600260008360001916600019168152602001908152602001600020600001600160028110151561139557fe5b60030201600082015181600001906000191690556020820151816001016000820151816000019060001916905560208201518160010155505090505080915050919050565b60008060008084602001518660200151106113f95784602001516113ff565b85602001515b925084600001518660000151186001900491507f800000000000000000000000000000000000000000000000000000000000000090505b8284101561146157600082821614151561144f57611461565b81820191508380600101945050611436565b50505092915050565b6000600260008460001916600019168152602001908152602001600020600080820160006114989190611666565b50506114a3826112c3565b905092915050565b60006114cd826000015160006002811015156114c357fe5b6020020151610e0f565b6114ed836000015160016002811015156114e357fe5b6020020151610e0f565b60405180836000191660001916815260200182600019166000191681526020019250505060405180910390209050919050565b604080519081016040528060008019168152602001600081525090565b6060604051908101604052806000801916815260200161155b6116af565b81525090565b828054600181600116156101000203166002900490600052602060002090601f016020900481019282601f106115a257805160ff19168380011785556115d0565b828001600101855582156115d0579182015b828111156115cf5782518255916020019190600101906115b4565b5b5090506115dd91906116cc565b5090565b602060405190810160405280600081525090565b61200060405190810160405280610100905b60008019168152602001906001900390816116075790505090565b60408051908101604052806002905b60008019168152602001906001900390816116315790505090565b60c0604051908101604052806116606116f1565b81525090565b5060008082016000905560018201600080820160009055600182016000905550505060030160008082016000905560018201600080820160009055600182016000905550505050565b604080519081016040528060008019168152602001600081525090565b6116ee91905b808211156116ea5760008160009055506001016116d2565b5090565b90565b60c0604051908101604052806002905b61170961171f565b8152602001906001900390816117015790505090565b6060604051908101604052806000801916815260200161173d6116af565b815250905600a165627a7a723058201ed31b47986fcb8b27c342f12dced4db4c8eb36d763cdaf191cfd80ec702fb9b0029",
  "source": "pragma solidity ^0.4.18;\n\n// got from https://github.com/chriseth/patricia-trie\n\nlibrary D {\n    struct Label {\n        bytes32 data;\n        uint length;\n    }\n    struct Edge {\n        bytes32 node;\n        Label label;\n    }\n    struct Node {\n        Edge[2] children;\n    }\n}\n\nlibrary Utils {\n    /// Returns a label containing the longest common prefix of `check` and `label`\n    /// and a label consisting of the remaining part of `label`.\n    function splitCommonPrefix(D.Label label, D.Label check) pure internal returns (D.Label prefix, D.Label labelSuffix) {\n        return splitAt(label, commonPrefix(check, label));\n    }\n    /// Splits the label at the given position and returns prefix and suffix,\n    /// i.e. prefix.length == pos and prefix.data . suffix.data == l.data.\n    function splitAt(D.Label l, uint pos) pure internal returns (D.Label prefix, D.Label suffix) {\n        require(pos <= l.length && pos <= 256);\n        prefix.length = pos;\n        if (pos == 0) {\n            prefix.data = bytes32(0);\n        } else {\n            prefix.data = l.data & ~bytes32((uint(1) << (256 - pos)) - 1);\n        }\n        suffix.length = l.length - pos;\n        suffix.data = l.data << pos;\n    }\n    /// Returns the length of the longest common prefix of the two labels.\n    function commonPrefix(D.Label a, D.Label b) pure  internal returns (uint prefix) {\n        uint length = a.length < b.length ? a.length : b.length;\n        // TODO: This could actually use a \"highestBitSet\" helper\n        uint diff = uint(a.data ^ b.data);\n        uint mask = 1 << 255;\n        for (; prefix < length; prefix++)\n        {\n            if ((mask & diff) != 0)\n                break;\n            diff += diff;\n        }\n    }\n    /// Returns the result of removing a prefix of length `prefix` bits from the\n    /// given label (i.e. shifting its data to the left).\n    function removePrefix(D.Label l, uint prefix) pure internal returns (D.Label r) {\n        require(prefix <= l.length);\n        r.length = l.length - prefix;\n        r.data = l.data << prefix;\n    }\n    /// Removes the first bit from a label and returns the bit and a\n    /// label containing the rest of the label (i.e. shifted to the left).\n    function chopFirstBit(D.Label l) pure internal returns (uint firstBit, D.Label tail) {\n        require(l.length > 0);\n        return (uint(l.data >> 255), D.Label(l.data << 1, l.length - 1));\n    }\n    /// Returns the first bit set in the bitfield, where the 0th bit\n    /// is the least significant.\n    /// Throws if bitfield is zero.\n    /// More efficient the smaller the result is.\n    function lowestBitSet(uint bitfield) pure internal returns (uint bit) {\n        require(bitfield != 0);\n        bytes32 bitfieldBytes = bytes32(bitfield);\n        // First, find the lowest byte set\n        for (uint byteSet = 0; byteSet < 32; byteSet++) {\n            if (bitfieldBytes[31 - byteSet] != 0)\n                break;\n        }\n        uint singleByte = uint(uint8(bitfieldBytes[31 - byteSet]));\n        uint mask = 1;\n        for (bit = 0; bit < 256; bit ++) {\n            if ((singleByte & mask) != 0)\n                return 8 * byteSet + bit;\n            mask += mask;\n        }\n        assert(false);\n        return 0;\n    }\n    /// Returns the value of the `bit`th bit inside `bitfield`, where\n    /// the least significant is the 0th bit.\n    function bitSet(uint bitfield, uint bit) pure internal returns (uint) {\n        return (bitfield & (uint(1) << bit)) != 0 ? 1 : 0;\n    }\n}\n\ncontract PatriciaTree {\n\n \taddress owner;\n\n\tfunction PatriciaTree() public { // added\n\t\towner = msg.sender;\n\t}\n\n    // Mapping of hash of key to value\n    mapping (bytes32 => bytes) values;\n\n    // Particia tree nodes (hash to decoded contents)\n    mapping (bytes32 => D.Node) nodes;\n    // The current root hash, keccak256(node(path_M('')), path_M(''))\n    bytes32 public root;\n    D.Edge rootEdge;\n\n    function getNode(bytes32 hash) public constant returns (uint, bytes32, bytes32, uint, bytes32, bytes32) {\n        var n = nodes[hash];\n        return (\n            n.children[0].label.length, n.children[0].label.data, n.children[0].node,\n            n.children[1].label.length, n.children[1].label.data, n.children[1].node\n        );\n    }\n\n    function getRootEdge() public  constant returns (uint, bytes32, bytes32) {\n        return (rootEdge.label.length, rootEdge.label.data, rootEdge.node);\n    }\n    \n    function edgeHash(D.Edge e) pure internal returns (bytes32) {\n        return keccak256(e.node, e.label.length, e.label.data);\n    }\n    \n    // Returns the hash of the encoding of a node.\n    function hash(D.Node memory n) pure internal returns (bytes32) {\n        return keccak256(edgeHash(n.children[0]), edgeHash(n.children[1]));\n    }\n    \n    // Returns the Merkle-proof for the given key\n    // Proof format should be:\n    //  - uint branchMask - bitmask with high bits at the positions in the key\n    //                    where we have branch nodes (bit in key denotes direction)\n    //  - bytes32[] hashes - hashes of sibling edges\n    function getProof(bytes key) public  view  returns (uint branchMask, bytes32[] _siblings) {\n        D.Label memory k = D.Label(keccak256(key), 256);\n        D.Edge memory e = rootEdge;\n        bytes32[256] memory siblings;\n        uint length;\n        uint numSiblings;\n        while (true) {\n            var (prefix, suffix) = Utils.splitCommonPrefix(k, e.label);\n            require(prefix.length == e.label.length);\n            if (suffix.length == 0) {\n                // Found it\n                break;\n            }\n            length += prefix.length;\n            branchMask |= uint(1) << (255 - length);\n            length += 1;\n            var (head, tail) = Utils.chopFirstBit(suffix);\n            siblings[numSiblings++] = edgeHash(nodes[e.node].children[1 - head]);\n            e = nodes[e.node].children[head];\n            k = tail;\n        }\n        if (numSiblings > 0)\n        {\n            _siblings = new bytes32[](numSiblings);\n            for (uint i = 0; i < numSiblings; i++)\n                _siblings[i] = siblings[i];\n        }\n    }\n\n    function verifyProof(bytes32 rootHash, bytes key, bytes value, uint branchMask, bytes32[] siblings) public pure {\n        D.Label memory k = D.Label(keccak256(key), 256);\n        D.Edge memory e;\n        e.node = keccak256(value);\n        for (uint i = 0; branchMask != 0; i++) {\n            uint bitSet = Utils.lowestBitSet(branchMask);\n            branchMask &= ~(uint(1) << bitSet);\n            (k, e.label) = Utils.splitAt(k, 255 - bitSet);\n            uint bit;\n            (bit, e.label) = Utils.chopFirstBit(e.label);\n            bytes32[2] memory edgeHashes;\n            edgeHashes[bit] = edgeHash(e);\n            edgeHashes[1 - bit] = siblings[siblings.length - i - 1];\n            e.node = keccak256(edgeHashes);\n        }\n        e.label = k;\n        require(rootHash == edgeHash(e));\n    }\n    \n    // TODO also return the proof\n    function insert(bytes key, bytes value) public  {\n\n        D.Label memory k = D.Label(keccak256(key), 256);\n        bytes32 valueHash = keccak256(value);\n        values[valueHash] = value;\n        // keys.push(key);\n        D.Edge memory e;\n        if (rootEdge.node == 0 && rootEdge.label.length == 0)\n        {\n            // Empty Trie\n            e.label = k;\n            e.node = valueHash;\n        }\n        else\n        {\n            e = insertAtEdge(rootEdge, k, valueHash);\n        }\n        root = edgeHash(e);\n        rootEdge = e;\n    }\n    \n    function insertAtNode(bytes32 nodeHash, D.Label key, bytes32 value) internal returns (bytes32) {\n        require(key.length > 1);\n        D.Node memory n = nodes[nodeHash];\n        var (head, tail) = Utils.chopFirstBit(key);\n        n.children[head] = insertAtEdge(n.children[head], tail, value);\n        return replaceNode(nodeHash, n);\n    }\n    \n    function insertAtEdge(D.Edge e, D.Label key, bytes32 value) internal returns (D.Edge) {\n        require(key.length >= e.label.length);\n        var (prefix, suffix) = Utils.splitCommonPrefix(key, e.label);\n        bytes32 newNodeHash;\n        if (suffix.length == 0) {\n            // Full match with the key, update operation\n            newNodeHash = value;\n        } else if (prefix.length >= e.label.length) {\n            // Partial match, just follow the path\n            newNodeHash = insertAtNode(e.node, suffix, value);\n        } else {\n            // Mismatch, so let us create a new branch node.\n            var (head, tail) = Utils.chopFirstBit(suffix);\n            D.Node memory branchNode;\n            branchNode.children[head] = D.Edge(value, tail);\n            branchNode.children[1 - head] = D.Edge(e.node, Utils.removePrefix(e.label, prefix.length + 1));\n            newNodeHash = insertNode(branchNode);\n        }\n        return D.Edge(newNodeHash, prefix);\n    }\n\n    function insertNode(D.Node memory n) internal returns (bytes32 newHash) {\n        bytes32 h = hash(n);\n        nodes[h].children[0] = n.children[0];\n        nodes[h].children[1] = n.children[1];\n        return h;\n    }\n\n    function replaceNode(bytes32 oldHash, D.Node memory n) internal returns (bytes32 newHash) {\n        delete nodes[oldHash];\n        return insertNode(n);\n    }\n}",
  "sourcePath": "/Users/amb/Feina/amb/gometh/gometh-contracts/contracts/PatriciaTree.sol",
  "compiler": {
    "name": "solc",
    "version": "0.4.18+commit.9cf6e910.Emscripten.clang"
  },
  "schemaVersion": "1.0.1",
  "updatedAt": "2018-03-13T22:39:52.311Z"
}