{
  "contractName": "WETH",
  "abi": [
    {
      "constant": false,
      "inputs": [
        {
          "name": "_spender",
          "type": "address"
        },
        {
          "name": "_value",
          "type": "uint256"
        }
      ],
      "name": "approve",
      "outputs": [
        {
          "name": "",
          "type": "bool"
        }
      ],
      "payable": false,
      "stateMutability": "nonpayable",
      "type": "function"
    },
    {
      "constant": true,
      "inputs": [],
      "name": "totalSupply",
      "outputs": [
        {
          "name": "",
          "type": "uint256"
        }
      ],
      "payable": false,
      "stateMutability": "view",
      "type": "function"
    },
    {
      "constant": false,
      "inputs": [
        {
          "name": "",
          "type": "bytes"
        },
        {
          "name": "",
          "type": "bytes"
        }
      ],
      "name": "insert",
      "outputs": [],
      "payable": false,
      "stateMutability": "nonpayable",
      "type": "function"
    },
    {
      "constant": false,
      "inputs": [
        {
          "name": "_from",
          "type": "address"
        },
        {
          "name": "_to",
          "type": "address"
        },
        {
          "name": "_value",
          "type": "uint256"
        }
      ],
      "name": "transferFrom",
      "outputs": [
        {
          "name": "",
          "type": "bool"
        }
      ],
      "payable": false,
      "stateMutability": "nonpayable",
      "type": "function"
    },
    {
      "constant": false,
      "inputs": [
        {
          "name": "_to",
          "type": "address"
        },
        {
          "name": "_amount",
          "type": "uint256"
        }
      ],
      "name": "mint",
      "outputs": [],
      "payable": false,
      "stateMutability": "nonpayable",
      "type": "function"
    },
    {
      "constant": true,
      "inputs": [
        {
          "name": "hash",
          "type": "bytes32"
        }
      ],
      "name": "getNode",
      "outputs": [
        {
          "name": "",
          "type": "uint256"
        },
        {
          "name": "",
          "type": "bytes32"
        },
        {
          "name": "",
          "type": "bytes32"
        },
        {
          "name": "",
          "type": "uint256"
        },
        {
          "name": "",
          "type": "bytes32"
        },
        {
          "name": "",
          "type": "bytes32"
        }
      ],
      "payable": false,
      "stateMutability": "view",
      "type": "function"
    },
    {
      "constant": false,
      "inputs": [
        {
          "name": "_spender",
          "type": "address"
        },
        {
          "name": "_subtractedValue",
          "type": "uint256"
        }
      ],
      "name": "decreaseApproval",
      "outputs": [
        {
          "name": "",
          "type": "bool"
        }
      ],
      "payable": false,
      "stateMutability": "nonpayable",
      "type": "function"
    },
    {
      "constant": true,
      "inputs": [
        {
          "name": "key",
          "type": "bytes"
        }
      ],
      "name": "getProof",
      "outputs": [
        {
          "name": "branchMask",
          "type": "uint256"
        },
        {
          "name": "_siblings",
          "type": "bytes32[]"
        }
      ],
      "payable": false,
      "stateMutability": "view",
      "type": "function"
    },
    {
      "constant": true,
      "inputs": [
        {
          "name": "_owner",
          "type": "address"
        }
      ],
      "name": "balanceOf",
      "outputs": [
        {
          "name": "balance",
          "type": "uint256"
        }
      ],
      "payable": false,
      "stateMutability": "view",
      "type": "function"
    },
    {
      "constant": true,
      "inputs": [],
      "name": "owner",
      "outputs": [
        {
          "name": "",
          "type": "address"
        }
      ],
      "payable": false,
      "stateMutability": "view",
      "type": "function"
    },
    {
      "constant": false,
      "inputs": [
        {
          "name": "_from",
          "type": "address"
        },
        {
          "name": "_amount",
          "type": "uint256"
        }
      ],
      "name": "burn",
      "outputs": [],
      "payable": false,
      "stateMutability": "nonpayable",
      "type": "function"
    },
    {
      "constant": true,
      "inputs": [],
      "name": "getRootEdge",
      "outputs": [
        {
          "name": "",
          "type": "uint256"
        },
        {
          "name": "",
          "type": "bytes32"
        },
        {
          "name": "",
          "type": "bytes32"
        }
      ],
      "payable": false,
      "stateMutability": "view",
      "type": "function"
    },
    {
      "constant": false,
      "inputs": [
        {
          "name": "_to",
          "type": "address"
        },
        {
          "name": "_value",
          "type": "uint256"
        }
      ],
      "name": "transfer",
      "outputs": [
        {
          "name": "",
          "type": "bool"
        }
      ],
      "payable": false,
      "stateMutability": "nonpayable",
      "type": "function"
    },
    {
      "constant": false,
      "inputs": [
        {
          "name": "_from",
          "type": "address"
        },
        {
          "name": "_to",
          "type": "address"
        },
        {
          "name": "_amount",
          "type": "uint256"
        }
      ],
      "name": "transfer",
      "outputs": [],
      "payable": false,
      "stateMutability": "nonpayable",
      "type": "function"
    },
    {
      "constant": false,
      "inputs": [
        {
          "name": "_spender",
          "type": "address"
        },
        {
          "name": "_addedValue",
          "type": "uint256"
        }
      ],
      "name": "increaseApproval",
      "outputs": [
        {
          "name": "",
          "type": "bool"
        }
      ],
      "payable": false,
      "stateMutability": "nonpayable",
      "type": "function"
    },
    {
      "constant": true,
      "inputs": [
        {
          "name": "_owner",
          "type": "address"
        },
        {
          "name": "_spender",
          "type": "address"
        }
      ],
      "name": "allowance",
      "outputs": [
        {
          "name": "",
          "type": "uint256"
        }
      ],
      "payable": false,
      "stateMutability": "view",
      "type": "function"
    },
    {
      "constant": true,
      "inputs": [],
      "name": "root",
      "outputs": [
        {
          "name": "",
          "type": "bytes32"
        }
      ],
      "payable": false,
      "stateMutability": "view",
      "type": "function"
    },
    {
      "constant": true,
      "inputs": [
        {
          "name": "rootHash",
          "type": "bytes32"
        },
        {
          "name": "key",
          "type": "bytes"
        },
        {
          "name": "value",
          "type": "bytes"
        },
        {
          "name": "branchMask",
          "type": "uint256"
        },
        {
          "name": "siblings",
          "type": "bytes32[]"
        }
      ],
      "name": "verifyProof",
      "outputs": [],
      "payable": false,
      "stateMutability": "pure",
      "type": "function"
    },
    {
      "inputs": [
        {
          "name": "_owner",
          "type": "address"
        }
      ],
      "payable": false,
      "stateMutability": "nonpayable",
      "type": "constructor"
    },
    {
      "anonymous": false,
      "inputs": [
        {
          "indexed": false,
          "name": "s",
          "type": "string"
        }
      ],
      "name": "Log",
      "type": "event"
    },
    {
      "anonymous": false,
      "inputs": [
        {
          "indexed": false,
          "name": "blockNo",
          "type": "uint256"
        },
        {
          "indexed": false,
          "name": "rootState",
          "type": "bytes32"
        }
      ],
      "name": "StateChange",
      "type": "event"
    },
    {
      "anonymous": false,
      "inputs": [
        {
          "indexed": true,
          "name": "owner",
          "type": "address"
        },
        {
          "indexed": true,
          "name": "spender",
          "type": "address"
        },
        {
          "indexed": false,
          "name": "value",
          "type": "uint256"
        }
      ],
      "name": "Approval",
      "type": "event"
    },
    {
      "anonymous": false,
      "inputs": [
        {
          "indexed": true,
          "name": "from",
          "type": "address"
        },
        {
          "indexed": true,
          "name": "to",
          "type": "address"
        },
        {
          "indexed": false,
          "name": "value",
          "type": "uint256"
        }
      ],
      "name": "Transfer",
      "type": "event"
    }
  ],
  "bytecode": "0x6060604052341561000f57600080fd5b60405160208061347c8339810160405280805190602001909190505033600360006101000a81548173ffffffffffffffffffffffffffffffffffffffff021916908373ffffffffffffffffffffffffffffffffffffffff16021790555080600a60006101000a81548173ffffffffffffffffffffffffffffffffffffffff021916908373ffffffffffffffffffffffffffffffffffffffff160217905550506133bf806100bd6000396000f3006060604052600436106100fc576000357c0100000000000000000000000000000000000000000000000000000000900463ffffffff168063095ea7b31461010157806318160ddd1461015b57806320ba5b601461018457806323b872dd1461022457806340c10f191461029d57806350c946fe146102df578063661884631461035d578063693ac4fb146103b757806370a08231146104705780638da5cb5b146104bd5780639dc29fac14610512578063a43914da14610554578063a9059cbb1461059b578063beabacc8146105f5578063d73dd62314610656578063dd62ed3e146106b0578063ebf0c7171461071c578063f7e498f61461074d575b600080fd5b341561010c57600080fd5b610141600480803573ffffffffffffffffffffffffffffffffffffffff16906020019091908035906020019091905050610843565b604051808215151515815260200191505060405180910390f35b341561016657600080fd5b61016e610935565b6040518082815260200191505060405180910390f35b341561018f57600080fd5b610222600480803590602001908201803590602001908080601f0160208091040260200160405190810160405280939291908181526020018383808284378201915050505050509190803590602001908201803590602001908080601f0160208091040260200160405190810160405280939291908181526020018383808284378201915050505050509190505061093b565b005b341561022f57600080fd5b610283600480803573ffffffffffffffffffffffffffffffffffffffff1690602001909190803573ffffffffffffffffffffffffffffffffffffffff16906020019091908035906020019091905050610940565b604051808215151515815260200191505060405180910390f35b34156102a857600080fd5b6102dd600480803573ffffffffffffffffffffffffffffffffffffffff16906020019091908035906020019091905050610a69565b005b34156102ea57600080fd5b610304600480803560001916906020019091905050610c81565b604051808781526020018660001916600019168152602001856000191660001916815260200184815260200183600019166000191681526020018260001916600019168152602001965050505050505060405180910390f35b341561036857600080fd5b61039d600480803573ffffffffffffffffffffffffffffffffffffffff16906020019091908035906020019091905050610d67565b604051808215151515815260200191505060405180910390f35b34156103c257600080fd5b610412600480803590602001908201803590602001908080601f01602080910402602001604051908101604052809392919081815260200183838082843782019150505050505091905050610ff8565b6040518083815260200180602001828103825283818151815260200191508051906020019060200280838360005b8381101561045b578082015181840152602081019050610440565b50505050905001935050505060405180910390f35b341561047b57600080fd5b6104a7600480803573ffffffffffffffffffffffffffffffffffffffff16906020019091905050611345565b6040518082815260200191505060405180910390f35b34156104c857600080fd5b6104d061138e565b604051808273ffffffffffffffffffffffffffffffffffffffff1673ffffffffffffffffffffffffffffffffffffffff16815260200191505060405180910390f35b341561051d57600080fd5b610552600480803573ffffffffffffffffffffffffffffffffffffffff169060200190919080359060200190919050506113b4565b005b341561055f57600080fd5b6105676115cc565b6040518084815260200183600019166000191681526020018260001916600019168152602001935050505060405180910390f35b34156105a657600080fd5b6105db600480803573ffffffffffffffffffffffffffffffffffffffff169060200190919080359060200190919050506115f4565b604051808215151515815260200191505060405180910390f35b341561060057600080fd5b610654600480803573ffffffffffffffffffffffffffffffffffffffff1690602001909190803573ffffffffffffffffffffffffffffffffffffffff1690602001909190803590602001909190505061171b565b005b341561066157600080fd5b610696600480803573ffffffffffffffffffffffffffffffffffffffff16906020019091908035906020019091905050611a06565b604051808215151515815260200191505060405180910390f35b34156106bb57600080fd5b610706600480803573ffffffffffffffffffffffffffffffffffffffff1690602001909190803573ffffffffffffffffffffffffffffffffffffffff16906020019091905050611c02565b6040518082815260200191505060405180910390f35b341561072757600080fd5b61072f611c89565b60405180826000191660001916815260200191505060405180910390f35b341561075857600080fd5b61084160048080356000191690602001909190803590602001908201803590602001908080601f0160208091040260200160405190810160405280939291908181526020018383808284378201915050505050509190803590602001908201803590602001908080601f0160208091040260200160405190810160405280939291908181526020018383808284378201915050505050509190803590602001909190803590602001908201803590602001908080602002602001604051908101604052809392919081815260200183836020028082843782019150505050505091905050611c8f565b005b600081600260003373ffffffffffffffffffffffffffffffffffffffff1673ffffffffffffffffffffffffffffffffffffffff16815260200190815260200160002060008573ffffffffffffffffffffffffffffffffffffffff1673ffffffffffffffffffffffffffffffffffffffff168152602001908152602001600020819055508273ffffffffffffffffffffffffffffffffffffffff163373ffffffffffffffffffffffffffffffffffffffff167f8c5be1e5ebec7d5bd14f71427d1e84f3dd0314c0f7b2291e5b200ac8c7c3b925846040518082815260200191505060405180910390a36001905092915050565b60005481565b600080fd5b60008061094e858585611efe565b905080801561095d5750600083115b15610a5e576109bb61096e866122bd565b6109b6600160008973ffffffffffffffffffffffffffffffffffffffff1673ffffffffffffffffffffffffffffffffffffffff1681526020019081526020016000205461239e565b612473565b610a146109c7856122bd565b610a0f600160008873ffffffffffffffffffffffffffffffffffffffff1673ffffffffffffffffffffffffffffffffffffffff1681526020019081526020016000205461239e565b612473565b7fc263f30c6ac5d833e1a65f5e52b711e4f3a98bb8c44d59a551519aee87402d8a436006546040518083815260200182600019166000191681526020019250505060405180910390a15b809150509392505050565b600a60009054906101000a900473ffffffffffffffffffffffffffffffffffffffff1673ffffffffffffffffffffffffffffffffffffffff163373ffffffffffffffffffffffffffffffffffffffff16141515610ac557600080fd5b610ada8160005461269590919063ffffffff16565b600081905550610b3281600160008573ffffffffffffffffffffffffffffffffffffffff1673ffffffffffffffffffffffffffffffffffffffff1681526020019081526020016000205461269590919063ffffffff16565b600160008473ffffffffffffffffffffffffffffffffffffffff1673ffffffffffffffffffffffffffffffffffffffff168152602001908152602001600020819055508173ffffffffffffffffffffffffffffffffffffffff16600073ffffffffffffffffffffffffffffffffffffffff167fddf252ad1be2c89b69c2b068fc378daa952ba7f163c4a11628f55a4df523b3ef836040518082815260200191505060405180910390a3610c34610be7836122bd565b610c2f600160008673ffffffffffffffffffffffffffffffffffffffff1673ffffffffffffffffffffffffffffffffffffffff1681526020019081526020016000205461239e565b612473565b7fc263f30c6ac5d833e1a65f5e52b711e4f3a98bb8c44d59a551519aee87402d8a436006546040518083815260200182600019166000191681526020019250505060405180910390a15050565b60008060008060008060006005600089600019166000191681526020019081526020016000209050806000016000600281101515610cbb57fe5b6003020160010160010154816000016000600281101515610cd857fe5b6003020160010160000154826000016000600281101515610cf557fe5b6003020160000154836000016001600281101515610d0f57fe5b6003020160010160010154846000016001600281101515610d2c57fe5b6003020160010160000154856000016001600281101515610d4957fe5b60030201600001549650965096509650965096505091939550919395565b600080600260003373ffffffffffffffffffffffffffffffffffffffff1673ffffffffffffffffffffffffffffffffffffffff16815260200190815260200160002060008573ffffffffffffffffffffffffffffffffffffffff1673ffffffffffffffffffffffffffffffffffffffff16815260200190815260200160002054905080831115610e78576000600260003373ffffffffffffffffffffffffffffffffffffffff1673ffffffffffffffffffffffffffffffffffffffff16815260200190815260200160002060008673ffffffffffffffffffffffffffffffffffffffff1673ffffffffffffffffffffffffffffffffffffffff16815260200190815260200160002081905550610f0c565b610e8b83826126b390919063ffffffff16565b600260003373ffffffffffffffffffffffffffffffffffffffff1673ffffffffffffffffffffffffffffffffffffffff16815260200190815260200160002060008673ffffffffffffffffffffffffffffffffffffffff1673ffffffffffffffffffffffffffffffffffffffff168152602001908152602001600020819055505b8373ffffffffffffffffffffffffffffffffffffffff163373ffffffffffffffffffffffffffffffffffffffff167f8c5be1e5ebec7d5bd14f71427d1e84f3dd0314c0f7b2291e5b200ac8c7c3b925600260003373ffffffffffffffffffffffffffffffffffffffff1673ffffffffffffffffffffffffffffffffffffffff16815260200190815260200160002060008873ffffffffffffffffffffffffffffffffffffffff1673ffffffffffffffffffffffffffffffffffffffff168152602001908152602001600020546040518082815260200191505060405180910390a3600191505092915050565b600061100261315c565b61100a613170565b61101261318d565b61101a6131b1565b600080611025613170565b61102d613170565b6000611037613170565b600060408051908101604052808e6040518082805190602001908083835b60208310151561107a5780518252602082019150602081019050602083039250611055565b6001836020036101000a038019825116818451168082178552505050505050905001915050604051809103902060001916815260200161010081525099506007604080519081016040529081600082015460001916600019168152602001600182016040805190810160405290816000820154600019166000191681526020016001820154815250508152505098505b6001156112b75761111f8a8a602001516126cc565b94509450886020015160200151856020015114151561113d57600080fd5b60008460200151141561114f576112b7565b8460200151870196508660ff0360019060020a028c179b50600187019650611176846126fa565b92509250611205600560008b6000015160001916600019168152602001908152602001600020600001846001036002811015156111af57fe5b600302016040805190810160405290816000820154600019166000191681526020016001820160408051908101604052908160008201546000191660001916815260200160018201548152505081525050612767565b88878060010198506101008110151561121a57fe5b60200201906000191690816000191681525050600560008a60000151600019166000191681526020019081526020016000206000018360028110151561125c57fe5b600302016040805190810160405290816000820154600019166000191681526020016001820160408051908101604052908160008201546000191660001916815260200160018201548152505081525050985081995061110a565b600086111561133657856040518059106112ce5750595b90808252806020026020018201604052509a50600090505b85811015611335578781610100811015156112fd57fe5b60200201518b8281518110151561131057fe5b90602001906020020190600019169081600019168152505080806001019150506112e6565b5b50505050505050505050915091565b6000600160008373ffffffffffffffffffffffffffffffffffffffff1673ffffffffffffffffffffffffffffffffffffffff168152602001908152602001600020549050919050565b600a60009054906101000a900473ffffffffffffffffffffffffffffffffffffffff1681565b600a60009054906101000a900473ffffffffffffffffffffffffffffffffffffffff1673ffffffffffffffffffffffffffffffffffffffff163373ffffffffffffffffffffffffffffffffffffffff1614151561141057600080fd5b611425816000546126b390919063ffffffff16565b60008190555061147d81600160008573ffffffffffffffffffffffffffffffffffffffff1673ffffffffffffffffffffffffffffffffffffffff168152602001908152602001600020546126b390919063ffffffff16565b600160008473ffffffffffffffffffffffffffffffffffffffff1673ffffffffffffffffffffffffffffffffffffffff16815260200190815260200160002081905550600073ffffffffffffffffffffffffffffffffffffffff168273ffffffffffffffffffffffffffffffffffffffff167fddf252ad1be2c89b69c2b068fc378daa952ba7f163c4a11628f55a4df523b3ef836040518082815260200191505060405180910390a361157f611532836122bd565b61157a600160008673ffffffffffffffffffffffffffffffffffffffff1673ffffffffffffffffffffffffffffffffffffffff1681526020019081526020016000205461239e565b612473565b7fc263f30c6ac5d833e1a65f5e52b711e4f3a98bb8c44d59a551519aee87402d8a436006546040518083815260200182600019166000191681526020019250505060405180910390a15050565b6000806000600760010160010154600760010160000154600760000154925092509250909192565b60008061160184846127ba565b90508080156116105750600083115b156117115761166e611621336122bd565b611669600160003373ffffffffffffffffffffffffffffffffffffffff1673ffffffffffffffffffffffffffffffffffffffff1681526020019081526020016000205461239e565b612473565b6116c761167a856122bd565b6116c2600160008873ffffffffffffffffffffffffffffffffffffffff1673ffffffffffffffffffffffffffffffffffffffff1681526020019081526020016000205461239e565b612473565b7fc263f30c6ac5d833e1a65f5e52b711e4f3a98bb8c44d59a551519aee87402d8a436006546040518083815260200182600019166000191681526020019250505060405180910390a15b8091505092915050565b600a60009054906101000a900473ffffffffffffffffffffffffffffffffffffffff1673ffffffffffffffffffffffffffffffffffffffff163373ffffffffffffffffffffffffffffffffffffffff1614151561177757600080fd5b6117c981600160008673ffffffffffffffffffffffffffffffffffffffff1673ffffffffffffffffffffffffffffffffffffffff168152602001908152602001600020546126b390919063ffffffff16565b600160008573ffffffffffffffffffffffffffffffffffffffff1673ffffffffffffffffffffffffffffffffffffffff1681526020019081526020016000208190555061185e81600160008573ffffffffffffffffffffffffffffffffffffffff1673ffffffffffffffffffffffffffffffffffffffff1681526020019081526020016000205461269590919063ffffffff16565b600160008473ffffffffffffffffffffffffffffffffffffffff1673ffffffffffffffffffffffffffffffffffffffff168152602001908152602001600020819055508173ffffffffffffffffffffffffffffffffffffffff168373ffffffffffffffffffffffffffffffffffffffff167fddf252ad1be2c89b69c2b068fc378daa952ba7f163c4a11628f55a4df523b3ef836040518082815260200191505060405180910390a361195f611912846122bd565b61195a600160008773ffffffffffffffffffffffffffffffffffffffff1673ffffffffffffffffffffffffffffffffffffffff1681526020019081526020016000205461239e565b612473565b6119b861196b836122bd565b6119b3600160008673ffffffffffffffffffffffffffffffffffffffff1673ffffffffffffffffffffffffffffffffffffffff1681526020019081526020016000205461239e565b612473565b7fc263f30c6ac5d833e1a65f5e52b711e4f3a98bb8c44d59a551519aee87402d8a436006546040518083815260200182600019166000191681526020019250505060405180910390a1505050565b6000611a9782600260003373ffffffffffffffffffffffffffffffffffffffff1673ffffffffffffffffffffffffffffffffffffffff16815260200190815260200160002060008673ffffffffffffffffffffffffffffffffffffffff1673ffffffffffffffffffffffffffffffffffffffff1681526020019081526020016000205461269590919063ffffffff16565b600260003373ffffffffffffffffffffffffffffffffffffffff1673ffffffffffffffffffffffffffffffffffffffff16815260200190815260200160002060008573ffffffffffffffffffffffffffffffffffffffff1673ffffffffffffffffffffffffffffffffffffffff168152602001908152602001600020819055508273ffffffffffffffffffffffffffffffffffffffff163373ffffffffffffffffffffffffffffffffffffffff167f8c5be1e5ebec7d5bd14f71427d1e84f3dd0314c0f7b2291e5b200ac8c7c3b925600260003373ffffffffffffffffffffffffffffffffffffffff1673ffffffffffffffffffffffffffffffffffffffff16815260200190815260200160002060008773ffffffffffffffffffffffffffffffffffffffff1673ffffffffffffffffffffffffffffffffffffffff168152602001908152602001600020546040518082815260200191505060405180910390a36001905092915050565b6000600260008473ffffffffffffffffffffffffffffffffffffffff1673ffffffffffffffffffffffffffffffffffffffff16815260200190815260200160002060008373ffffffffffffffffffffffffffffffffffffffff1673ffffffffffffffffffffffffffffffffffffffff16815260200190815260200160002054905092915050565b60065481565b611c97613170565b611c9f61318d565b6000806000611cac6131de565b60408051908101604052808b6040518082805190602001908083835b602083101515611ced5780518252602082019150602081019050602083039250611cc8565b6001836020036101000a03801982511681845116808217855250505050505090500191505060405180910390206000191681526020016101008152509550886040518082805190602001908083835b602083101515611d615780518252602082019150602081019050602083039250611d3c565b6001836020036101000a038019825116818451168082178552505050505050905001915050604051809103902085600001906000191690816000191681525050600093505b600088141515611eca57611db9886129de565b92508260019060020a021988169750611dd5868460ff03612b4e565b809050866020018190528197505050611df185602001516126fa565b809050866020018190528193505050611e0985612767565b8183600281101515611e1757fe5b602002019060001916908160001916815250508660018589510303815181101515611e3e57fe5b906020019060200201518183600103600281101515611e5957fe5b60200201906000191690816000191681525050806040518082600260200280838360005b83811015611e98578082015181840152602081019050611e7d565b505050509050019150506040518091039020856000019060001916908160001916815250508380600101945050611da6565b858560200181905250611edc85612767565b600019168b60001916141515611ef157600080fd5b5050505050505050505050565b60008073ffffffffffffffffffffffffffffffffffffffff168373ffffffffffffffffffffffffffffffffffffffff1614151515611f3b57600080fd5b600160008573ffffffffffffffffffffffffffffffffffffffff1673ffffffffffffffffffffffffffffffffffffffff168152602001908152602001600020548211151515611f8957600080fd5b600260008573ffffffffffffffffffffffffffffffffffffffff1673ffffffffffffffffffffffffffffffffffffffff16815260200190815260200160002060003373ffffffffffffffffffffffffffffffffffffffff1673ffffffffffffffffffffffffffffffffffffffff16815260200190815260200160002054821115151561201457600080fd5b61206682600160008773ffffffffffffffffffffffffffffffffffffffff1673ffffffffffffffffffffffffffffffffffffffff168152602001908152602001600020546126b390919063ffffffff16565b600160008673ffffffffffffffffffffffffffffffffffffffff1673ffffffffffffffffffffffffffffffffffffffff168152602001908152602001600020819055506120fb82600160008673ffffffffffffffffffffffffffffffffffffffff1673ffffffffffffffffffffffffffffffffffffffff1681526020019081526020016000205461269590919063ffffffff16565b600160008573ffffffffffffffffffffffffffffffffffffffff1673ffffffffffffffffffffffffffffffffffffffff168152602001908152602001600020819055506121cd82600260008773ffffffffffffffffffffffffffffffffffffffff1673ffffffffffffffffffffffffffffffffffffffff16815260200190815260200160002060003373ffffffffffffffffffffffffffffffffffffffff1673ffffffffffffffffffffffffffffffffffffffff168152602001908152602001600020546126b390919063ffffffff16565b600260008673ffffffffffffffffffffffffffffffffffffffff1673ffffffffffffffffffffffffffffffffffffffff16815260200190815260200160002060003373ffffffffffffffffffffffffffffffffffffffff1673ffffffffffffffffffffffffffffffffffffffff168152602001908152602001600020819055508273ffffffffffffffffffffffffffffffffffffffff168473ffffffffffffffffffffffffffffffffffffffff167fddf252ad1be2c89b69c2b068fc378daa952ba7f163c4a11628f55a4df523b3ef846040518082815260200191505060405180910390a3600190509392505050565b6122c5613208565b60006122cf613208565b6000846c0100000000000000000000000002925060146040518059106122f25750595b9080825280601f01601f19166020018201604052509150600090505b601481101561239357828160148110151561232557fe5b1a7f010000000000000000000000000000000000000000000000000000000000000002828281518110151561235657fe5b9060200101907effffffffffffffffffffffffffffffffffffffffffffffffffffffffffffff1916908160001a905350808060010191505061230e565b819350505050919050565b6123a6613208565b60006123b0613208565b600084600102925060206040518059106123c75750595b9080825280601f01601f19166020018201604052509150600090505b60208110156124685782816020811015156123fa57fe5b1a7f010000000000000000000000000000000000000000000000000000000000000002828281518110151561242b57fe5b9060200101907effffffffffffffffffffffffffffffffffffffffffffffffffffffffffffff1916908160001a90535080806001019150506123e3565b819350505050919050565b61247b613170565b600061248561318d565b6040805190810160405280866040518082805190602001908083835b6020831015156124c657805182526020820191506020810190506020830392506124a1565b6001836020036101000a03801982511681845116808217855250505050505090500191505060405180910390206000191681526020016101008152509250836040518082805190602001908083835b60208310151561253a5780518252602082019150602081019050602083039250612515565b6001836020036101000a0380198251168184511680821785525050505050509050019150506040518091039020915083600460008460001916600019168152602001908152602001600020908051906020019061259892919061321c565b506000600102600760000154600019161480156125bd57506000600760010160010154145b156125e4578281602001819052508181600001906000191690816000191681525050612640565b61263d600760408051908101604052908160008201546000191660001916815260200160018201604080519081016040529081600082015460001916600019168152602001600182015481525050815250508484612c15565b90505b61264981612767565b6006816000191690555080600760008201518160000190600019169055602082015181600101600082015181600001906000191690556020820151816001015550509050505050505050565b60008082840190508381101515156126a957fe5b8091505092915050565b60008282111515156126c157fe5b818303905092915050565b6126d4613170565b6126dc613170565b6126ef846126ea8587612d70565b612b4e565b915091509250929050565b6000612704613170565b6000836020015111151561271757600080fd5b60ff8360000151600019169060020a900460019004604080519081016040528060018660000151600019169060020a02600019168152602001600186602001510381525080905091509150915091565b600081600001518260200151602001518360200151600001516040518084600019166000191681526020018381526020018260001916600019168152602001935050505060405180910390209050919050565b60008073ffffffffffffffffffffffffffffffffffffffff168373ffffffffffffffffffffffffffffffffffffffff16141515156127f757600080fd5b600160003373ffffffffffffffffffffffffffffffffffffffff1673ffffffffffffffffffffffffffffffffffffffff16815260200190815260200160002054821115151561284557600080fd5b61289782600160003373ffffffffffffffffffffffffffffffffffffffff1673ffffffffffffffffffffffffffffffffffffffff168152602001908152602001600020546126b390919063ffffffff16565b600160003373ffffffffffffffffffffffffffffffffffffffff1673ffffffffffffffffffffffffffffffffffffffff1681526020019081526020016000208190555061292c82600160008673ffffffffffffffffffffffffffffffffffffffff1673ffffffffffffffffffffffffffffffffffffffff1681526020019081526020016000205461269590919063ffffffff16565b600160008573ffffffffffffffffffffffffffffffffffffffff1673ffffffffffffffffffffffffffffffffffffffff168152602001908152602001600020819055508273ffffffffffffffffffffffffffffffffffffffff163373ffffffffffffffffffffffffffffffffffffffff167fddf252ad1be2c89b69c2b068fc378daa952ba7f163c4a11628f55a4df523b3ef846040518082815260200191505060405180910390a36001905092915050565b60008060008060008086141515156129f557600080fd5b856001029350600092505b6020831015612a9c5760007f0100000000000000000000000000000000000000000000000000000000000000028484601f03602081101515612a3e57fe5b1a7f0100000000000000000000000000000000000000000000000000000000000000027effffffffffffffffffffffffffffffffffffffffffffffffffffffffffffff1916141515612a8f57612a9c565b8280600101935050612a00565b8383601f03602081101515612aad57fe5b1a7f0100000000000000000000000000000000000000000000000000000000000000027f0100000000000000000000000000000000000000000000000000000000000000900460ff16915060019050600094505b610100851015612b36576000818316141515612b24578483600802019450612b45565b80810190508480600101955050612b01565b60001515612b4057fe5b600094505b50505050919050565b612b56613170565b612b5e613170565b83602001518311158015612b7457506101008311155b1515612b7f57600080fd5b828260200181815250506000831415612baf57600060010282600001906000191690816000191681525050612bdc565b6001836101000360019060020a020360010219846000015116826000019060001916908160001916815250505b82846020015103816020018181525050828460000151600019169060020a02816000019060001916908160001916815250509250929050565b612c1d61318d565b612c25613170565b612c2d613170565b600080612c38613170565b612c4061329c565b896020015160200151896020015110151515612c5b57600080fd5b612c69898b602001516126cc565b95509550600085602001511415612c8257879350612d48565b8960200151602001518660200151101515612cad57612ca68a60000151868a612e00565b9350612d47565b612cb6856126fa565b9250925060408051908101604052808960001916815260200183815250816000015184600281101515612ce557fe5b602002018190525060408051908101604052808b60000151600019168152602001612d1b8c6020015160018a6020015101612f3c565b815250816000015184600103600281101515612d3357fe5b6020020181905250612d4481612f8f565b93505b5b6040805190810160405280856000191681526020018781525096505050505050509392505050565b6000806000808460200151866020015110612d8f578460200151612d95565b85602001515b925084600001518660000151186001900491507f800000000000000000000000000000000000000000000000000000000000000090505b82841015612df7576000828216141515612de557612df7565b81820191508380600101945050612dcc565b50505092915050565b6000612e0a61329c565b6000612e14613170565b60018660200151111515612e2757600080fd5b6005600088600019166000191681526020019081526020016000206020604051908101604052908160008201600280602002604051908101604052809291906000905b82821015612ed457838260030201604080519081016040529081600082015460001916600019168152602001600182016040805190810160405290816000820154600019166000191681526020016001820154815250508152505081526020019060010190612e6a565b50505050815250509250612ee7866126fa565b91509150612f0c836000015183600281101515612f0057fe5b60200201518287612c15565b836000015183600281101515612f1e57fe5b6020020181905250612f3087846130a6565b93505050509392505050565b612f44613170565b82602001518211151515612f5757600080fd5b81836020015103816020018181525050818360000151600019169060020a028160000190600019169081600019168152505092915050565b600080612f9b836130e7565b905082600001516000600281101515612fb057fe5b60200201516005600083600019166000191681526020019081526020016000206000016000600281101515612fe157fe5b6003020160008201518160000190600019169055602082015181600101600082015181600001906000191690556020820151816001015550509050508260000151600160028110151561303057fe5b6020020151600560008360001916600019168152602001908152602001600020600001600160028110151561306157fe5b60030201600082015181600001906000191690556020820151816001016000820151816000019060001916905560208201518160010155505090505080915050919050565b6000600560008460001916600019168152602001908152602001600020600080820160006130d491906132b6565b50506130df82612f8f565b905092915050565b6000613109826000015160006002811015156130ff57fe5b6020020151612767565b6131298360000151600160028110151561311f57fe5b6020020151612767565b60405180836000191660001916815260200182600019166000191681526020019250505060405180910390209050919050565b602060405190810160405280600081525090565b604080519081016040528060008019168152602001600081525090565b606060405190810160405280600080191681526020016131ab6132ff565b81525090565b61200060405190810160405280610100905b60008019168152602001906001900390816131c35790505090565b60408051908101604052806002905b60008019168152602001906001900390816131ed5790505090565b602060405190810160405280600081525090565b828054600181600116156101000203166002900490600052602060002090601f016020900481019282601f1061325d57805160ff191683800117855561328b565b8280016001018555821561328b579182015b8281111561328a57825182559160200191906001019061326f565b5b509050613298919061331c565b5090565b60c0604051908101604052806132b0613341565b81525090565b5060008082016000905560018201600080820160009055600182016000905550505060030160008082016000905560018201600080820160009055600182016000905550505050565b604080519081016040528060008019168152602001600081525090565b61333e91905b8082111561333a576000816000905550600101613322565b5090565b90565b60c0604051908101604052806002905b61335961336f565b8152602001906001900390816133515790505090565b6060604051908101604052806000801916815260200161338d6132ff565b815250905600a165627a7a723058207da8665023b31d387b569e6af1d868aef0469f71c7e3b78f642762b4cdd8fdf80029",
  "source": "pragma solidity ^0.4.18;\n\nimport \"zeppelin-solidity/contracts/token/StandardToken.sol\";\nimport \"./PatriciaTree.sol\";\n\ncontract WETH is StandardToken, PatriciaTree {\n\n  event Log(string s);\n  event StateChange(uint256 blockNo, bytes32 rootState);\n\n  address public owner;\n\n  function WETH(address _owner) public{\n     owner = _owner;\n  }\n\n  function mint(address _to, uint256 _amount) public {\n    require (msg.sender == owner);\n\n    totalSupply = totalSupply.add(_amount);\n    balances[_to] = balances[_to].add(_amount);\n \n    Transfer(address(0), _to, _amount);\n \n    super.insert(addr2bytes(_to),uint2bytes(balances[_to]));\n    StateChange(block.number,root);\n  }\n\n  function burn(address _from, uint256 _amount) public {\n    require (msg.sender == owner);\n\n    totalSupply = totalSupply.sub(_amount);\n    balances[_from] = balances[_from].sub(_amount);\n    Transfer(_from, address(0), _amount);\n\n    super.insert(addr2bytes(_from),uint2bytes(balances[_from]));\n    StateChange(block.number,root);\n  }\n\n  function transfer(address _from, address _to, uint256 _amount) public {\n    require (msg.sender == owner);\n\n    balances[_from] = balances[_from].sub(_amount);\n    balances[_to] = balances[_to].add(_amount);\n    Transfer(_from, _to, _amount);\n\n    super.insert(addr2bytes(_from),uint2bytes(balances[_from]));\n    super.insert(addr2bytes(_to),uint2bytes(balances[_to]));\n    StateChange(block.number,root);\n  }\n\n  // override transfer\n  function transfer(address _to, uint256 _value) public returns (bool) {\n\n    bool success = super.transfer(_to,_value);\n\n    if (success && _value > 0 ) {\n      super.insert(addr2bytes(msg.sender),uint2bytes(balances[msg.sender]));\n      super.insert(addr2bytes(_to),uint2bytes(balances[_to]));\n      StateChange(block.number,root);\n    }\n\n    return success;\n\n  }\n\n  // override transferFrom\n  function transferFrom(address _from, address _to, uint256 _value) public returns (bool) {\n\n    bool success = super.transferFrom(_from,_to,_value);\n\n    if (success && _value > 0 ) {\n      super.insert(addr2bytes(_from),uint2bytes(balances[_from]));\n      super.insert(addr2bytes(_to),uint2bytes(balances[_to]));\n      StateChange(block.number,root);\n    }\n\n    return success;\n\n  }\n\n  /* override PatriciaTree.insert, make it private */\n  function insert(bytes, bytes) public  {\n    revert();\n  }\n\n  function addr2bytes(address _v) pure internal returns (bytes) {\n    bytes20 v = bytes20(_v);\n    bytes memory b = new bytes(20);\n    for (uint i = 0;i<20;i++) {\n      b[i] = v[i];\n    }\n    return b;\n  }\n    \n  function uint2bytes(uint _v) pure internal returns (bytes) {\n    bytes32 v = bytes32(_v);\n    bytes memory b = new bytes(32);\n    for (uint i = 0;i<32;i++) {\n      b[i] = v[i];\n    }\n    return b;\n  }\n    \n  function bytes2addr(bytes _b)  pure internal returns (address) {\n    uint256 r = 0x0;\n    for (uint i = 0;i<20;i++) {\n      r = r*256 + uint(_b[i]);\n    }\n    return address(r);\n  }\n    \n  function bytes2uint(bytes _b) pure internal returns (uint) {\n    uint256 r = 0x0;\n    for (uint i = 0;i<32;i++) {\n      r = r*256 + uint(_b[i]);\n    }\n    return uint(r);\n  }\n    \n}",
  "sourcePath": "/Users/amb/Feina/amb/gometh/gometh-contracts/contracts/WETH.sol",
  "compiler": {
    "name": "solc",
    "version": "0.4.18+commit.9cf6e910.Emscripten.clang"
  },
  "schemaVersion": "1.0.1",
  "updatedAt": "2018-03-13T22:39:52.317Z"
}